{
  "_format": "hh-sol-artifact-1",
  "contractName": "StakingV2",
  "sourceName": "contracts/StakingV2.sol",
  "abi": [
    {
      "inputs": [],
      "stateMutability": "nonpayable",
      "type": "constructor"
    },
    {
      "anonymous": false,
      "inputs": [
        {
          "indexed": false,
          "internalType": "address",
          "name": "staker",
          "type": "address"
        },
        {
          "indexed": false,
          "internalType": "uint256",
          "name": "claimAmount",
          "type": "uint256"
        },
        {
          "indexed": false,
          "internalType": "uint256",
          "name": "stakeId",
          "type": "uint256"
        }
      ],
      "name": "ClaimdForNonLock",
      "type": "event"
    },
    {
      "anonymous": false,
      "inputs": [
        {
          "indexed": false,
          "internalType": "address",
          "name": "to",
          "type": "address"
        },
        {
          "indexed": false,
          "internalType": "uint256",
          "name": "amount",
          "type": "uint256"
        },
        {
          "indexed": false,
          "internalType": "uint256",
          "name": "stakeId",
          "type": "uint256"
        }
      ],
      "name": "IncreasedAmountForSimpleStake",
      "type": "event"
    },
    {
      "anonymous": false,
      "inputs": [
        {
          "indexed": false,
          "internalType": "address",
          "name": "staker",
          "type": "address"
        },
        {
          "indexed": false,
          "internalType": "uint256",
          "name": "amount",
          "type": "uint256"
        },
        {
          "indexed": false,
          "internalType": "uint256",
          "name": "unlockWeeks",
          "type": "uint256"
        },
        {
          "indexed": false,
          "internalType": "uint256",
          "name": "stakeId",
          "type": "uint256"
        },
        {
          "indexed": false,
          "internalType": "uint256",
          "name": "stosId",
          "type": "uint256"
        }
      ],
      "name": "IncreasedBeforeEndOrNonEnd",
      "type": "event"
    },
    {
      "anonymous": false,
      "inputs": [
        {
          "indexed": false,
          "internalType": "uint256",
          "name": "oldIndex",
          "type": "uint256"
        },
        {
          "indexed": false,
          "internalType": "uint256",
          "name": "newIndex",
          "type": "uint256"
        },
        {
          "indexed": false,
          "internalType": "uint256",
          "name": "totalLTOS",
          "type": "uint256"
        }
      ],
      "name": "Rebased",
      "type": "event"
    },
    {
      "anonymous": false,
      "inputs": [
        {
          "indexed": false,
          "internalType": "address",
          "name": "to",
          "type": "address"
        },
        {
          "indexed": false,
          "internalType": "uint256",
          "name": "addAmount",
          "type": "uint256"
        },
        {
          "indexed": false,
          "internalType": "uint256",
          "name": "claimAmount",
          "type": "uint256"
        },
        {
          "indexed": false,
          "internalType": "uint256",
          "name": "periodWeeks",
          "type": "uint256"
        },
        {
          "indexed": false,
          "internalType": "uint256",
          "name": "stakeId",
          "type": "uint256"
        },
        {
          "indexed": false,
          "internalType": "uint256",
          "name": "stosId",
          "type": "uint256"
        }
      ],
      "name": "ResetStakedGetStosAfterLock",
      "type": "event"
    },
    {
      "anonymous": false,
      "inputs": [
        {
          "indexed": true,
          "internalType": "bytes32",
          "name": "role",
          "type": "bytes32"
        },
        {
          "indexed": true,
          "internalType": "bytes32",
          "name": "previousAdminRole",
          "type": "bytes32"
        },
        {
          "indexed": true,
          "internalType": "bytes32",
          "name": "newAdminRole",
          "type": "bytes32"
        }
      ],
      "name": "RoleAdminChanged",
      "type": "event"
    },
    {
      "anonymous": false,
      "inputs": [
        {
          "indexed": true,
          "internalType": "bytes32",
          "name": "role",
          "type": "bytes32"
        },
        {
          "indexed": true,
          "internalType": "address",
          "name": "account",
          "type": "address"
        },
        {
          "indexed": true,
          "internalType": "address",
          "name": "sender",
          "type": "address"
        }
      ],
      "name": "RoleGranted",
      "type": "event"
    },
    {
      "anonymous": false,
      "inputs": [
        {
          "indexed": true,
          "internalType": "bytes32",
          "name": "role",
          "type": "bytes32"
        },
        {
          "indexed": true,
          "internalType": "address",
          "name": "account",
          "type": "address"
        },
        {
          "indexed": true,
          "internalType": "address",
          "name": "sender",
          "type": "address"
        }
      ],
      "name": "RoleRevoked",
      "type": "event"
    },
    {
      "anonymous": false,
      "inputs": [
        {
          "indexed": false,
          "internalType": "address",
          "name": "to",
          "type": "address"
        },
        {
          "indexed": false,
          "internalType": "uint256",
          "name": "amount",
          "type": "uint256"
        },
        {
          "indexed": false,
          "internalType": "uint256",
          "name": "stakeId",
          "type": "uint256"
        }
      ],
      "name": "Staked",
      "type": "event"
    },
    {
      "anonymous": false,
      "inputs": [
        {
          "indexed": false,
          "internalType": "address",
          "name": "to",
          "type": "address"
        },
        {
          "indexed": false,
          "internalType": "uint256",
          "name": "amount",
          "type": "uint256"
        },
        {
          "indexed": false,
          "internalType": "uint256",
          "name": "ltos",
          "type": "uint256"
        },
        {
          "indexed": false,
          "internalType": "uint256",
          "name": "marketId",
          "type": "uint256"
        },
        {
          "indexed": false,
          "internalType": "uint256",
          "name": "stakeId",
          "type": "uint256"
        },
        {
          "indexed": false,
          "internalType": "uint256",
          "name": "tosPrice",
          "type": "uint256"
        }
      ],
      "name": "StakedByBond",
      "type": "event"
    },
    {
      "anonymous": false,
      "inputs": [
        {
          "indexed": false,
          "internalType": "address",
          "name": "to",
          "type": "address"
        },
        {
          "indexed": false,
          "internalType": "uint256",
          "name": "amount",
          "type": "uint256"
        },
        {
          "indexed": false,
          "internalType": "uint256",
          "name": "periodWeeks",
          "type": "uint256"
        },
        {
          "indexed": false,
          "internalType": "uint256",
          "name": "stakeId",
          "type": "uint256"
        },
        {
          "indexed": false,
          "internalType": "uint256",
          "name": "stosId",
          "type": "uint256"
        }
      ],
      "name": "StakedGetStos",
      "type": "event"
    },
    {
      "anonymous": false,
      "inputs": [
        {
          "indexed": false,
          "internalType": "address",
          "name": "to",
          "type": "address"
        },
        {
          "indexed": false,
          "internalType": "uint256",
          "name": "amount",
          "type": "uint256"
        },
        {
          "indexed": false,
          "internalType": "uint256",
          "name": "ltos",
          "type": "uint256"
        },
        {
          "indexed": false,
          "internalType": "uint256",
          "name": "periodWeeks",
          "type": "uint256"
        },
        {
          "indexed": false,
          "internalType": "uint256",
          "name": "marketId",
          "type": "uint256"
        },
        {
          "indexed": false,
          "internalType": "uint256",
          "name": "stakeId",
          "type": "uint256"
        },
        {
          "indexed": false,
          "internalType": "uint256",
          "name": "stosId",
          "type": "uint256"
        },
        {
          "indexed": false,
          "internalType": "uint256",
          "name": "tosPrice",
          "type": "uint256"
        }
      ],
      "name": "StakedGetStosByBond",
      "type": "event"
    },
    {
      "anonymous": false,
      "inputs": [
        {
          "indexed": false,
          "internalType": "address",
          "name": "staker",
          "type": "address"
        },
        {
          "indexed": false,
          "internalType": "uint256",
          "name": "amount",
          "type": "uint256"
        },
        {
          "indexed": false,
          "internalType": "uint256",
          "name": "stakeId",
          "type": "uint256"
        }
      ],
      "name": "Unstaked",
      "type": "event"
    },
    {
      "inputs": [],
      "name": "ADMIN_ROLE",
      "outputs": [
        {
          "internalType": "bytes32",
          "name": "",
          "type": "bytes32"
        }
      ],
      "stateMutability": "view",
      "type": "function"
    },
    {
      "inputs": [],
      "name": "DEFAULT_ADMIN_ROLE",
      "outputs": [
        {
          "internalType": "bytes32",
          "name": "",
          "type": "bytes32"
        }
      ],
      "stateMutability": "view",
      "type": "function"
    },
    {
      "inputs": [],
      "name": "POLICY_ROLE",
      "outputs": [
        {
          "internalType": "bytes32",
          "name": "",
          "type": "bytes32"
        }
      ],
      "stateMutability": "view",
      "type": "function"
    },
    {
      "inputs": [],
      "name": "PROJECT_ADMIN_ROLE",
      "outputs": [
        {
          "internalType": "bytes32",
          "name": "",
          "type": "bytes32"
        }
      ],
      "stateMutability": "view",
      "type": "function"
    },
    {
      "inputs": [],
      "name": "TOS",
      "outputs": [
        {
          "internalType": "contract IERC20",
          "name": "",
          "type": "address"
        }
      ],
      "stateMutability": "view",
      "type": "function"
    },
    {
      "inputs": [
        {
          "internalType": "address",
          "name": "account",
          "type": "address"
        }
      ],
      "name": "addAdmin",
      "outputs": [],
      "stateMutability": "nonpayable",
      "type": "function"
    },
    {
      "inputs": [
        {
          "internalType": "address",
          "name": "_account",
          "type": "address"
        }
      ],
      "name": "addPolicy",
      "outputs": [],
      "stateMutability": "nonpayable",
      "type": "function"
    },
    {
      "inputs": [
        {
          "internalType": "address",
          "name": "_owner",
          "type": "address"
        }
      ],
      "name": "addProxyAdmin",
      "outputs": [],
      "stateMutability": "nonpayable",
      "type": "function"
    },
    {
      "inputs": [
        {
          "internalType": "uint256",
          "name": "",
          "type": "uint256"
        }
      ],
      "name": "allStakings",
      "outputs": [
        {
          "internalType": "address",
          "name": "staker",
          "type": "address"
        },
        {
          "internalType": "uint256",
          "name": "deposit",
          "type": "uint256"
        },
        {
          "internalType": "uint256",
          "name": "LTOS",
          "type": "uint256"
        },
        {
          "internalType": "uint256",
          "name": "startTime",
          "type": "uint256"
        },
        {
          "internalType": "uint256",
          "name": "endTime",
          "type": "uint256"
        },
        {
          "internalType": "uint256",
          "name": "marketId",
          "type": "uint256"
        }
      ],
      "stateMutability": "view",
      "type": "function"
    },
    {
      "inputs": [
        {
          "internalType": "address",
          "name": "_addr",
          "type": "address"
        }
      ],
      "name": "balanceOf",
      "outputs": [
        {
          "internalType": "uint256",
          "name": "balance",
          "type": "uint256"
        }
      ],
      "stateMutability": "view",
      "type": "function"
    },
    {
      "inputs": [
        {
          "internalType": "uint256",
          "name": "_stakeId",
          "type": "uint256"
        }
      ],
      "name": "balanceOfId",
      "outputs": [
        {
          "internalType": "uint256",
          "name": "",
          "type": "uint256"
        }
      ],
      "stateMutability": "view",
      "type": "function"
    },
    {
      "inputs": [],
      "name": "basicBondPeriod",
      "outputs": [
        {
          "internalType": "uint256",
          "name": "",
          "type": "uint256"
        }
      ],
      "stateMutability": "view",
      "type": "function"
    },
    {
      "inputs": [
        {
          "internalType": "uint256",
          "name": "_stakeId",
          "type": "uint256"
        },
        {
          "internalType": "uint256",
          "name": "_claimAmount",
          "type": "uint256"
        }
      ],
      "name": "claimForSimpleType",
      "outputs": [],
      "stateMutability": "nonpayable",
      "type": "function"
    },
    {
      "inputs": [
        {
          "internalType": "uint256",
          "name": "_stakeId",
          "type": "uint256"
        }
      ],
      "name": "claimableLtos",
      "outputs": [
        {
          "internalType": "uint256",
          "name": "",
          "type": "uint256"
        }
      ],
      "stateMutability": "view",
      "type": "function"
    },
    {
      "inputs": [
        {
          "internalType": "uint256",
          "name": "_stakeId",
          "type": "uint256"
        }
      ],
      "name": "claimableTos",
      "outputs": [
        {
          "internalType": "uint256",
          "name": "",
          "type": "uint256"
        }
      ],
      "stateMutability": "view",
      "type": "function"
    },
    {
      "inputs": [
        {
          "internalType": "uint256",
          "name": "",
          "type": "uint256"
        }
      ],
      "name": "connectId",
      "outputs": [
        {
          "internalType": "uint256",
          "name": "",
          "type": "uint256"
        }
      ],
      "stateMutability": "view",
      "type": "function"
    },
    {
      "inputs": [],
      "name": "epoch",
      "outputs": [
        {
          "internalType": "uint256",
          "name": "length_",
          "type": "uint256"
        },
        {
          "internalType": "uint256",
          "name": "number",
          "type": "uint256"
        },
        {
          "internalType": "uint256",
          "name": "end",
          "type": "uint256"
        }
      ],
      "stateMutability": "view",
      "type": "function"
    },
    {
      "inputs": [],
      "name": "generateMarketId",
      "outputs": [
        {
          "internalType": "uint256",
          "name": "",
          "type": "uint256"
        }
      ],
      "stateMutability": "nonpayable",
      "type": "function"
    },
    {
      "inputs": [],
      "name": "getIndex",
      "outputs": [
        {
          "internalType": "uint256",
          "name": "",
          "type": "uint256"
        }
      ],
      "stateMutability": "view",
      "type": "function"
    },
    {
      "inputs": [
        {
          "internalType": "uint256",
          "name": "ltos",
          "type": "uint256"
        }
      ],
      "name": "getLtosToTos",
      "outputs": [
        {
          "internalType": "uint256",
          "name": "",
          "type": "uint256"
        }
      ],
      "stateMutability": "view",
      "type": "function"
    },
    {
      "inputs": [
        {
          "internalType": "bytes32",
          "name": "role",
          "type": "bytes32"
        }
      ],
      "name": "getRoleAdmin",
      "outputs": [
        {
          "internalType": "bytes32",
          "name": "",
          "type": "bytes32"
        }
      ],
      "stateMutability": "view",
      "type": "function"
    },
    {
      "inputs": [
        {
          "internalType": "uint256",
          "name": "amount",
          "type": "uint256"
        }
      ],
      "name": "getTosToLtos",
      "outputs": [
        {
          "internalType": "uint256",
          "name": "",
          "type": "uint256"
        }
      ],
      "stateMutability": "view",
      "type": "function"
    },
    {
      "inputs": [
        {
          "internalType": "bytes32",
          "name": "role",
          "type": "bytes32"
        },
        {
          "internalType": "address",
          "name": "account",
          "type": "address"
        }
      ],
      "name": "grantRole",
      "outputs": [],
      "stateMutability": "nonpayable",
      "type": "function"
    },
    {
      "inputs": [
        {
          "internalType": "bytes32",
          "name": "role",
          "type": "bytes32"
        },
        {
          "internalType": "address",
          "name": "account",
          "type": "address"
        }
      ],
      "name": "hasRole",
      "outputs": [
        {
          "internalType": "bool",
          "name": "",
          "type": "bool"
        }
      ],
      "stateMutability": "view",
      "type": "function"
    },
    {
      "inputs": [
        {
          "internalType": "uint256",
          "name": "_stakeId",
          "type": "uint256"
        },
        {
          "internalType": "uint256",
          "name": "_amount",
          "type": "uint256"
        }
      ],
      "name": "increaseAmountForSimpleStake",
      "outputs": [],
      "stateMutability": "nonpayable",
      "type": "function"
    },
    {
      "inputs": [
        {
          "internalType": "uint256",
          "name": "_stakeId",
          "type": "uint256"
        },
        {
          "internalType": "uint256",
          "name": "_amount",
          "type": "uint256"
        },
        {
          "internalType": "uint256",
          "name": "_unlockWeeks",
          "type": "uint256"
        }
      ],
      "name": "increaseBeforeEndOrNonEnd",
      "outputs": [],
      "stateMutability": "nonpayable",
      "type": "function"
    },
    {
      "inputs": [],
      "name": "index_",
      "outputs": [
        {
          "internalType": "uint256",
          "name": "",
          "type": "uint256"
        }
      ],
      "stateMutability": "view",
      "type": "function"
    },
    {
      "inputs": [
        {
          "internalType": "address",
          "name": "account",
          "type": "address"
        }
      ],
      "name": "isAdmin",
      "outputs": [
        {
          "internalType": "bool",
          "name": "",
          "type": "bool"
        }
      ],
      "stateMutability": "view",
      "type": "function"
    },
    {
      "inputs": [
        {
          "internalType": "address",
          "name": "account",
          "type": "address"
        }
      ],
      "name": "isPolicy",
      "outputs": [
        {
          "internalType": "bool",
          "name": "",
          "type": "bool"
        }
      ],
      "stateMutability": "view",
      "type": "function"
    },
    {
      "inputs": [
        {
          "internalType": "address",
          "name": "account",
          "type": "address"
        }
      ],
      "name": "isProxyAdmin",
      "outputs": [
        {
          "internalType": "bool",
          "name": "",
          "type": "bool"
        }
      ],
      "stateMutability": "view",
      "type": "function"
    },
    {
      "inputs": [],
      "name": "lockTOS",
      "outputs": [
        {
          "internalType": "address",
          "name": "",
          "type": "address"
        }
      ],
      "stateMutability": "view",
      "type": "function"
    },
    {
      "inputs": [
        {
          "internalType": "uint256",
          "name": "",
          "type": "uint256"
        }
      ],
      "name": "lockTOSId",
      "outputs": [
        {
          "internalType": "uint256",
          "name": "",
          "type": "uint256"
        }
      ],
      "stateMutability": "view",
      "type": "function"
    },
    {
      "inputs": [],
      "name": "marketIdCounter",
      "outputs": [
        {
          "internalType": "uint256",
          "name": "",
          "type": "uint256"
        }
      ],
      "stateMutability": "view",
      "type": "function"
    },
    {
      "inputs": [
        {
          "internalType": "uint256[]",
          "name": "_stakeIds",
          "type": "uint256[]"
        }
      ],
      "name": "multiUnstake",
      "outputs": [],
      "stateMutability": "nonpayable",
      "type": "function"
    },
    {
      "inputs": [],
      "name": "nextIndex",
      "outputs": [
        {
          "internalType": "uint256",
          "name": "",
          "type": "uint256"
        }
      ],
      "stateMutability": "view",
      "type": "function"
    },
    {
      "inputs": [],
      "name": "possibleIndex",
      "outputs": [
        {
          "internalType": "uint256",
          "name": "",
          "type": "uint256"
        },
        {
          "internalType": "uint256",
          "name": "",
          "type": "uint256"
        }
      ],
      "stateMutability": "view",
      "type": "function"
    },
    {
      "inputs": [],
      "name": "rebaseIndex",
      "outputs": [],
      "stateMutability": "nonpayable",
      "type": "function"
    },
    {
      "inputs": [],
      "name": "rebasePerEpoch",
      "outputs": [
        {
          "internalType": "uint256",
          "name": "",
          "type": "uint256"
        }
      ],
      "stateMutability": "view",
      "type": "function"
    },
    {
      "inputs": [
        {
          "internalType": "uint256",
          "name": "_stakeId",
          "type": "uint256"
        }
      ],
      "name": "remainedLTOS",
      "outputs": [
        {
          "internalType": "uint256",
          "name": "",
          "type": "uint256"
        }
      ],
      "stateMutability": "view",
      "type": "function"
    },
    {
      "inputs": [],
      "name": "removeAdmin",
      "outputs": [],
      "stateMutability": "nonpayable",
      "type": "function"
    },
    {
      "inputs": [],
      "name": "removePolicy",
      "outputs": [],
      "stateMutability": "nonpayable",
      "type": "function"
    },
    {
      "inputs": [],
      "name": "removeProxyAdmin",
      "outputs": [],
      "stateMutability": "nonpayable",
      "type": "function"
    },
    {
      "inputs": [
        {
          "internalType": "bytes32",
          "name": "role",
          "type": "bytes32"
        },
        {
          "internalType": "address",
          "name": "account",
          "type": "address"
        }
      ],
      "name": "renounceRole",
      "outputs": [],
      "stateMutability": "nonpayable",
      "type": "function"
    },
    {
      "inputs": [
        {
          "internalType": "uint256",
          "name": "_stakeId",
          "type": "uint256"
        },
        {
          "internalType": "uint256",
          "name": "_addAmount",
          "type": "uint256"
        },
        {
          "internalType": "uint256",
          "name": "_claimAmount",
          "type": "uint256"
        },
        {
          "internalType": "uint256",
          "name": "_periodWeeks",
          "type": "uint256"
        }
      ],
      "name": "resetStakeGetStosAfterLock",
      "outputs": [],
      "stateMutability": "nonpayable",
      "type": "function"
    },
    {
      "inputs": [
        {
          "internalType": "bytes32",
          "name": "role",
          "type": "bytes32"
        },
        {
          "internalType": "address",
          "name": "account",
          "type": "address"
        }
      ],
      "name": "revokeRole",
      "outputs": [],
      "stateMutability": "nonpayable",
      "type": "function"
    },
    {
      "inputs": [],
      "name": "runwayTOS",
      "outputs": [
        {
          "internalType": "uint256",
          "name": "",
          "type": "uint256"
        }
      ],
      "stateMutability": "view",
      "type": "function"
    },
    {
      "inputs": [],
      "name": "secondsToNextEpoch",
      "outputs": [
        {
          "internalType": "uint256",
          "name": "",
          "type": "uint256"
        }
      ],
      "stateMutability": "view",
      "type": "function"
    },
    {
      "inputs": [
        {
          "internalType": "address",
          "name": "_tos",
          "type": "address"
        },
        {
          "internalType": "address",
          "name": "_lockTOS",
          "type": "address"
        },
        {
          "internalType": "address",
          "name": "_treasury",
          "type": "address"
        }
      ],
      "name": "setAddressInfos",
      "outputs": [],
      "stateMutability": "nonpayable",
      "type": "function"
    },
    {
      "inputs": [
        {
          "internalType": "uint256",
          "name": "_period",
          "type": "uint256"
        }
      ],
      "name": "setBasicBondPeriod",
      "outputs": [],
      "stateMutability": "nonpayable",
      "type": "function"
    },
    {
      "inputs": [
        {
          "internalType": "uint256",
          "name": "_index",
          "type": "uint256"
        }
      ],
      "name": "setIndex",
      "outputs": [],
      "stateMutability": "nonpayable",
      "type": "function"
    },
    {
      "inputs": [
        {
          "internalType": "uint256",
          "name": "_rebasePerEpoch",
          "type": "uint256"
        }
      ],
      "name": "setRebasePerEpoch",
      "outputs": [],
      "stateMutability": "nonpayable",
      "type": "function"
    },
    {
      "inputs": [
        {
          "internalType": "uint256",
          "name": "_amount",
          "type": "uint256"
        }
      ],
      "name": "stake",
      "outputs": [
        {
          "internalType": "uint256",
          "name": "stakeId",
          "type": "uint256"
        }
      ],
      "stateMutability": "nonpayable",
      "type": "function"
    },
    {
      "inputs": [
        {
          "internalType": "address",
          "name": "to",
          "type": "address"
        },
        {
          "internalType": "uint256",
          "name": "_amount",
          "type": "uint256"
        },
        {
          "internalType": "uint256",
          "name": "_marketId",
          "type": "uint256"
        },
        {
          "internalType": "uint256",
          "name": "tosPrice",
          "type": "uint256"
        }
      ],
      "name": "stakeByBond",
      "outputs": [
        {
          "internalType": "uint256",
          "name": "stakeId",
          "type": "uint256"
        }
      ],
      "stateMutability": "nonpayable",
      "type": "function"
    },
    {
      "inputs": [
        {
          "internalType": "uint256",
          "name": "_amount",
          "type": "uint256"
        },
        {
          "internalType": "uint256",
          "name": "_periodWeeks",
          "type": "uint256"
        }
      ],
      "name": "stakeGetStos",
      "outputs": [
        {
          "internalType": "uint256",
          "name": "stakeId",
          "type": "uint256"
        }
      ],
      "stateMutability": "nonpayable",
      "type": "function"
    },
    {
      "inputs": [
        {
          "internalType": "address",
          "name": "_to",
          "type": "address"
        },
        {
          "internalType": "uint256",
          "name": "_amount",
          "type": "uint256"
        },
        {
          "internalType": "uint256",
          "name": "_marketId",
          "type": "uint256"
        },
        {
          "internalType": "uint256",
          "name": "_periodWeeks",
          "type": "uint256"
        },
        {
          "internalType": "uint256",
          "name": "tosPrice",
          "type": "uint256"
        }
      ],
      "name": "stakeGetStosByBond",
      "outputs": [
        {
          "internalType": "uint256",
          "name": "stakeId",
          "type": "uint256"
        }
      ],
      "stateMutability": "nonpayable",
      "type": "function"
    },
    {
      "inputs": [
        {
          "internalType": "uint256",
          "name": "stakeId",
          "type": "uint256"
        }
      ],
      "name": "stakeInfo",
      "outputs": [
        {
          "internalType": "address",
          "name": "staker",
          "type": "address"
        },
        {
          "internalType": "uint256",
          "name": "deposit",
          "type": "uint256"
        },
        {
          "internalType": "uint256",
          "name": "LTOS",
          "type": "uint256"
        },
        {
          "internalType": "uint256",
          "name": "startTime",
          "type": "uint256"
        },
        {
          "internalType": "uint256",
          "name": "endTime",
          "type": "uint256"
        },
        {
          "internalType": "uint256",
          "name": "marketId",
          "type": "uint256"
        }
      ],
      "stateMutability": "view",
      "type": "function"
    },
    {
      "inputs": [
        {
          "internalType": "uint256",
          "name": "stakeId",
          "type": "uint256"
        }
      ],
      "name": "stakedOf",
      "outputs": [
        {
          "internalType": "uint256",
          "name": "",
          "type": "uint256"
        }
      ],
      "stateMutability": "view",
      "type": "function"
    },
    {
      "inputs": [],
      "name": "stakedOfAll",
      "outputs": [
        {
          "internalType": "uint256",
          "name": "",
          "type": "uint256"
        }
      ],
      "stateMutability": "view",
      "type": "function"
    },
    {
      "inputs": [],
      "name": "stakingIdCounter",
      "outputs": [
        {
          "internalType": "uint256",
          "name": "",
          "type": "uint256"
        }
      ],
      "stateMutability": "view",
      "type": "function"
    },
    {
      "inputs": [
        {
          "internalType": "address",
          "name": "_addr",
          "type": "address"
        }
      ],
      "name": "stakingOf",
      "outputs": [
        {
          "internalType": "uint256[]",
          "name": "",
          "type": "uint256[]"
        }
      ],
      "stateMutability": "view",
      "type": "function"
    },
    {
      "inputs": [],
      "name": "stakingPrincipal",
      "outputs": [
        {
          "internalType": "uint256",
          "name": "",
          "type": "uint256"
        }
      ],
      "stateMutability": "view",
      "type": "function"
    },
    {
      "inputs": [],
      "name": "startEpochTime",
      "outputs": [
        {
          "internalType": "uint256",
          "name": "",
          "type": "uint256"
        }
      ],
      "stateMutability": "view",
      "type": "function"
    },
    {
      "inputs": [
        {
          "internalType": "bytes4",
          "name": "interfaceId",
          "type": "bytes4"
        }
      ],
      "name": "supportsInterface",
      "outputs": [
        {
          "internalType": "bool",
          "name": "",
          "type": "bool"
        }
      ],
      "stateMutability": "view",
      "type": "function"
    },
    {
      "inputs": [
        {
          "internalType": "address[]",
          "name": "accounts",
          "type": "address[]"
        },
        {
          "internalType": "uint256[]",
          "name": "balances",
          "type": "uint256[]"
        },
        {
          "internalType": "uint256[]",
          "name": "period",
          "type": "uint256[]"
        },
        {
          "internalType": "uint256[]",
          "name": "tokenId",
          "type": "uint256[]"
        }
      ],
      "name": "syncSTOS",
      "outputs": [],
      "stateMutability": "nonpayable",
      "type": "function"
    },
    {
      "inputs": [],
      "name": "totalDepositTOS",
      "outputs": [
        {
          "internalType": "uint256",
          "name": "",
          "type": "uint256"
        }
      ],
      "stateMutability": "view",
      "type": "function"
    },
    {
      "inputs": [],
      "name": "totalLTOS",
      "outputs": [
        {
          "internalType": "uint256",
          "name": "",
          "type": "uint256"
        }
      ],
      "stateMutability": "view",
      "type": "function"
    },
    {
      "inputs": [
        {
          "internalType": "address",
          "name": "newAdmin",
          "type": "address"
        }
      ],
      "name": "transferAdmin",
      "outputs": [],
      "stateMutability": "nonpayable",
      "type": "function"
    },
    {
      "inputs": [
        {
          "internalType": "address",
          "name": "newAdmin",
          "type": "address"
        }
      ],
      "name": "transferPolicyAdmin",
      "outputs": [],
      "stateMutability": "nonpayable",
      "type": "function"
    },
    {
      "inputs": [
        {
          "internalType": "address",
          "name": "newAdmin",
          "type": "address"
        }
      ],
      "name": "transferProxyAdmin",
      "outputs": [],
      "stateMutability": "nonpayable",
      "type": "function"
    },
    {
      "inputs": [],
      "name": "treasury",
      "outputs": [
        {
          "internalType": "address",
          "name": "",
          "type": "address"
        }
      ],
      "stateMutability": "view",
      "type": "function"
    },
    {
      "inputs": [
        {
          "internalType": "uint256",
          "name": "_stakeId",
          "type": "uint256"
        }
      ],
      "name": "unstake",
      "outputs": [],
      "stateMutability": "nonpayable",
      "type": "function"
    },
    {
      "inputs": [
        {
          "internalType": "address",
          "name": "",
          "type": "address"
        },
        {
          "internalType": "uint256",
          "name": "",
          "type": "uint256"
        }
      ],
      "name": "userStakingIndex",
      "outputs": [
        {
          "internalType": "uint256",
          "name": "",
          "type": "uint256"
        }
      ],
      "stateMutability": "view",
      "type": "function"
    },
    {
      "inputs": [
        {
          "internalType": "address",
          "name": "",
          "type": "address"
        },
        {
          "internalType": "uint256",
          "name": "",
          "type": "uint256"
        }
      ],
      "name": "userStakings",
      "outputs": [
        {
          "internalType": "uint256",
          "name": "",
          "type": "uint256"
        }
      ],
      "stateMutability": "view",
      "type": "function"
    }
  ],
  "bytecode": "0x6080604052600160085534801561001557600080fd5b506156a880620000266000396000f3fe608060405234801561001057600080fd5b50600436106103535760003560e01c806379a34c79116101c657806379a34c79146106b35780637cc0fee6146106c657806381045ead146106d95780638356ca4f146106e157806383a5683a146106f45780638acf45fd14610707578063900cf0cf1461072757806391d14854146107485780639483c1d71461075b57806396f1557c1461076357806397b4293714610776578063980b1097146107895780639a202d471461079c5780639a794e66146107a45780639e9e792f146107b7578063a052e69e146107d7578063a1c95e5a146107e0578063a217fddf146107f3578063a694fc3a146107fb578063a7110dc31461080e578063a89aa6a814610839578063b24352b11461084c578063b84ef0811461085f578063b88ad1e314610872578063be72f2d314610885578063c1b1c10e1461088d578063ca16910f146108a0578063ccd811c8146108b3578063d547741f146108bb578063d5f95aab146108ce578063df160b3f146108d6578063e75f77e1146108df578063f1c8c922146108f2578063f47f2f1d14610905578063f864640814610918578063fad1c85c1461092b578063fc7e9c6f1461093e57600080fd5b806301ffc9a714610358578063037859af146103805780630e1e998f146103a057806311f1c8bf146103b75780631814a5b1146103ca5780631e725567146103d357806322985246146103e8578063248a9ca3146103fd57806324d7806c14610410578063265705b11461042357806328ea9ff0146104365780632e17de78146104535780632f2ff15d1461046657806330e06e8b14610479578063332b01f31461048157806336568abe14610494578063385030b4146104a757806340a5737f146104b057806341c04d5e146104c357806347e1b372146104d857806349ec9883146104e05780634e533572146104f35780634e6c4466146105825780635720bf3a146105a25780635746248f146105ab5780635dc3c29a146105be5780635f3383521461060b57806361d027b31461061357806365cb3a83146106265780636d1c789f1461062e578063704802751461063757806370a082311461064a57806375829def1461065d57806375b238fc1461067057806377d73dc61461069757806378ad1405146106aa575b600080fd5b61036b610366366004614eba565b610946565b60405190151581526020015b60405180910390f35b61039361038e366004614c5c565b61097d565b604051610377919061511b565b6103a9600d5481565b604051908152602001610377565b6103a96103c5366004614e77565b6109e9565b6103a960065481565b6103e66103e1366004614efa565b610a04565b005b6103a960008051602061565383398151915281565b6103a961040b366004614e77565b610cad565b61036b61041e366004614c5c565b610cc2565b6103e6610431366004614c76565b610cdc565b61043e610e37565b60408051928352602083019190915201610377565b6103e6610461366004614e77565b610fdd565b6103e6610474366004614e8f565b6112ff565b6103a9611321565b6103a961048f366004614ce1565b6113da565b6103e66104a2366004614e8f565b61156d565b6103a9600c5481565b6103e66104be366004614e77565b6115eb565b6103a960008051602061561383398151915281565b6103e6611615565b6103e66104ee366004614e77565b6119b5565b610570610501366004614e77565b600090815260116020908152604091829020825160c08101845281546001600160a01b03168082526001830154938201849052600283015494820185905260038301546060830181905260048401546080840181905260059094015460a0909301839052909593949390929190565b604051610377969594939291906150e8565b600154610595906001600160a01b031681565b6040516103779190615052565b6103a9600b5481565b6103a96105b9366004614cb8565b6119df565b6105706105cc366004614e77565b6011602052600090815260409020805460018201546002830154600384015460048501546005909501546001600160a01b039094169492939192909186565b6103a9611a10565b600254610595906001600160a01b031681565b6103e6611a22565b6103a9600e5481565b6103e6610645366004614c5c565b611a5f565b6103a9610658366004614c5c565b611a9f565b6103e661066b366004614c5c565b611b75565b6103a97fdf8b4c520ffe197c5343c6f5aec59570151ef9a492f2c624fd45ddde6135ec4281565b6103a96106a5366004614e77565b611c28565b6103a960075481565b6103e66106c1366004614d5a565b611c4a565b6103a96106d4366004614e77565b611e65565b6007546103a9565b6103e66106ef366004614c5c565b611eb9565b6103e6610702366004614efa565b611f43565b6103a9610715366004614e77565b60136020526000908152604090205481565b60035460045460055461073992919083565b6040516103779392919061551a565b61036b610756366004614e8f565b612071565b6103a961209c565b6103e6610771366004614c5c565b6120bf565b6103a9610784366004614e77565b6120ef565b6103a9610797366004614d19565b612108565b6103e66123e4565b6103e66107b2366004614e18565b612430565b6103a96107c5366004614e77565b60126020526000908152604090205481565b6103a9600a5481565b6103a96107ee366004614e77565b6124be565b6103a9600081565b6103a9610809366004614e77565b6124c9565b6103a961081c366004614cb8565b601060209081526000928352604080842090915290825290205481565b6103a9610847366004614e77565b612654565b6103e661085a366004614f96565b612699565b6103e661086d366004614c5c565b612c16565b6103e6610880366004614f3e565b612c53565b6103e6613397565b6103a961089b366004614e77565b6133c7565b6103a96108ae366004614efa565b6133dc565b6103a9613684565b6103e66108c9366004614e8f565b613762565b6103a961377f565b6103a960095481565b6103e66108ed366004614e77565b613800565b6103e6610900366004614c5c565b613889565b61036b610913366004614c5c565b61392d565b600054610595906001600160a01b031681565b61036b610939366004614c5c565b613939565b6103a9613953565b60006001600160e01b03198216637965db0b60e01b148061097757506301ffc9a760e01b6001600160e01b03198316145b92915050565b6001600160a01b0381166000908152600f60209081526040918290208054835181840281018401909452808452606093928301828280156109dd57602002820191906000526020600020905b8154815260200190600101908083116109c9575b50505050509050919050565b600081815260116020526040812060020154610977906120ef565b8180610a2b5760405162461bcd60e51b8152600401610a229061545c565b60405180910390fd5b8180610a495760405162461bcd60e51b8152600401610a229061545c565b60008481526012602052604090205415610aa55760405162461bcd60e51b815260206004820152601d60248201527f7468697320697320666f72206e6f6e2d6c6f636b2070726f647563742e0000006044820152606401610a22565b6000848152601160205260409020546001600160a01b0316338114610adc5760405162461bcd60e51b8152600401610a229061530a565b600085815260116020526040902060020154610af7906120ef565b841115610b165760405162461bcd60e51b8152600401610a22906153ce565b6000858152601160205260409020600401544211610b715760405162461bcd60e51b815260206004820152601860248201527732b732103a34b6b2903430b9903737ba103830b9b9b2b21760411b6044820152606401610a22565b610b79611615565b610b86856000808761398b565b6000546040516370a0823160e01b815285916001600160a01b0316906370a0823190610bb6903090600401615052565b60206040518083038186803b158015610bce57600080fd5b505afa158015610be2573d6000803e3d6000fd5b505050506040513d601f19601f82011682018060405250810190610c069190614ee2565b1015610c545760405162461bcd60e51b815260206004820152601f60248201527f7374616b696e672062616c616e636520697320696e73756666696369656e74006044820152606401610a22565b600054610c6b906001600160a01b03168286613cda565b7f5ac7224c417abee0b26a4daa9b5221c45297a5429fc56e11bc9170dabc15d33c818587604051610c9e93929190615080565b60405180910390a15050505050565b60009081526014602052604090206001015490565b600061097760008051602061561383398151915283612071565b610ce533613939565b610d015760405162461bcd60e51b8152600401610a2290615488565b826001600160a01b038116610d285760405162461bcd60e51b8152600401610a22906152db565b826001600160a01b038116610d4f5760405162461bcd60e51b8152600401610a22906152db565b826001600160a01b038116610d765760405162461bcd60e51b8152600401610a22906152db565b6000546001600160a01b038781169116141580610da157506001546001600160a01b03868116911614155b80610dba57506002546001600160a01b03858116911614155b610df55760405162461bcd60e51b815260206004820152600c60248201526b73616d65206164647265737360a01b6044820152606401610a22565b5050600080546001600160a01b039586166001600160a01b03199182161790915560018054948616948216949094179093555060028054919093169116179055565b60008060004260036002015411610e8857600354600554610e589042615587565b1115610e8857600354600554610e6e9042615587565b610e789190615548565b9050610e85600182615530565b90505b600073__$23c3f0c4d39c3898c699ac978f80cfe781$__6343b44082610eac613684565b610eb76009546120ef565b600b546040518463ffffffff1660e01b8152600401610ed89392919061551a565b60206040518083038186803b158015610ef057600080fd5b505af4158015610f04573d6000803e3d6000fd5b505050506040513d601f19601f82011682018060405250810190610f289190614ee2565b905081811015610f4057610f3d816001615530565b91505b600754600b546040516379e42f5d60e11b815260009273__$23c3f0c4d39c3898c699ac978f80cfe781$__9263f3c85eba92610f82929190889060040161551a565b60206040518083038186803b158015610f9a57600080fd5b505af4158015610fae573d6000803e3d6000fd5b505050506040513d601f19601f82011682018060405250810190610fd29190614ee2565b959294509192505050565b8080610ffb5760405162461bcd60e51b8152600401610a229061545c565b600082815260116020526040902080546001600160a01b031633811461105b5760405162461bcd60e51b815260206004820152601560248201527431b0b63632b91034b9903737ba1039ba30b5b2b91760591b6044820152606401610a22565b428260040154106110a85760405162461bcd60e51b815260206004820152601760248201527632b732103a34b6b2903430b9b713ba103830b9b9b2b21760491b6044820152606401610a22565b6110b0611615565b60006110bb85612654565b9050600081116111055760405162461bcd60e51b81526020600482015260156024820152741e995c9bc818db185a5b58589b1948185b5bdd5b9d605a1b6044820152606401610a22565b6000611113610784876133c7565b6001850154600088815260126020526040902054600a54929350909182116111525781600a60008282546111479190615587565b909155506111589050565b6000600a555b8560020154600954106111865785600201546009600082825461117b9190615587565b9091555061118c9050565b60006009555b80156112165760015460405163c0a37b3f60e01b81526001600160a01b039091169063c0a37b3f906111c490889085906004016150a1565b600060405180830381600087803b1580156111de57600080fd5b505af11580156111f2573d6000803e3d6000fd5b50505060008981526012602090815260408083208390558483526013909152812055505b6000611222868a613dea565b905061122e8982613f84565b828411156112a2576002546001600160a01b031663aa5fc794306112528688615587565b6040518363ffffffff1660e01b815260040161126f9291906150a1565b600060405180830381600087803b15801561128957600080fd5b505af115801561129d573d6000803e3d6000fd5b505050505b6000546112b9906001600160a01b03168787613cda565b7f7fc4727e062e336010f2c282598ef5f14facb3de68cf8195c2f23e1454b2b74e86868b6040516112ec93929190615080565b60405180910390a1505050505050505050565b61130882610cad565b6113128133614014565b61131c8383614078565b505050565b60025460405163099e2b0b60e31b81526000916001600160a01b031690634cf1585890611355906009903390600401615503565b60206040518083038186803b15801561136d57600080fd5b505afa158015611381573d6000803e3d6000fd5b505050506040513d601f19601f820116820180604052508101906113a59190614e57565b6113c15760405162461bcd60e51b8152600401610a2290615368565b600e80549060006113d1836155e1565b91905055905090565b60025460405163099e2b0b60e31b81526000916001600160a01b031690634cf158589061140e906009903390600401615503565b60206040518083038186803b15801561142657600080fd5b505afa15801561143a573d6000803e3d6000fd5b505050506040513d601f19601f8201168201806040525081019061145e9190614e57565b61147a5760405162461bcd60e51b8152600401610a2290615368565b846001600160a01b0381166114a15760405162461bcd60e51b8152600401610a22906152db565b84806114bf5760405162461bcd60e51b8152600401610a229061545c565b84806114dd5760405162461bcd60e51b8152600401610a229061545c565b6114e6886140fe565b6114ee6141a4565b93506114fa88856141bf565b611502611615565b600061151e89868a600c54426115189190615530565b8b614202565b90507f10b677c7a9f17c8fa541bdcc53b14beb96651665c3ef380c8df860dbd8f3545e8989838a898b604051611559969594939291906150e8565b60405180910390a150505050949350505050565b6001600160a01b03811633146115dd5760405162461bcd60e51b815260206004820152602f60248201527f416363657373436f6e74726f6c3a2063616e206f6e6c792072656e6f756e636560448201526e103937b632b9903337b91039b2b63360891b6064820152608401610a22565b6115e78282614357565b5050565b6115f433613939565b6116105760405162461bcd60e51b8152600401610a2290615488565b600755565b60055442106119b357600354600554600091906116329042615587565b1115611655576003546005546116489042615587565b6116529190615548565b90505b611660816001615530565b60035461166d9190615568565b6005805460009061167f908490615530565b9091555081905061168f816155e1565b6007549092509050600182111561173457600754600b546040516379e42f5d60e11b815273__$23c3f0c4d39c3898c699ac978f80cfe781$__9263f3c85eba926116dd92879060040161551a565b60206040518083038186803b1580156116f557600080fd5b505af4158015611709573d6000803e3d6000fd5b505050506040513d601f19601f8201168201806040525081019061172d9190614ee2565b9050611748565b816001141561174857611745613953565b90505b6000611752613684565b90508061175e57505050565b6007546000670de0b6b3a76400006117768386615587565b6009546117839190615568565b61178d9190615548565b9050828110156117e6576007849055600480548691906000906117b1908490615530565b9091555050600954604051600080516020615633833981519152916117d9918591889161551a565b60405180910390a16119ad565b60018511156119ad57600073__$23c3f0c4d39c3898c699ac978f80cfe781$__6343b44082611813613684565b61181e6009546120ef565b600b546040518463ffffffff1660e01b815260040161183f9392919061551a565b60206040518083038186803b15801561185757600080fd5b505af415801561186b573d6000803e3d6000fd5b505050506040513d601f19601f8201168201806040525081019061188f9190614ee2565b9050858110156119ab57600754600b546040516379e42f5d60e11b815273__$23c3f0c4d39c3898c699ac978f80cfe781$__9263f3c85eba926118d692869060040161551a565b60206040518083038186803b1580156118ee57600080fd5b505af4158015611902573d6000803e3d6000fd5b505050506040513d601f19601f820116820180604052508101906119269190614ee2565b9450670de0b6b3a76400006007548661193f9190615587565b60095461194c9190615568565b6119569190615548565b9150838210156119ab5760078590556004805482919060009061197a908490615530565b9091555050600954604051600080516020615633833981519152916119a2918691899161551a565b60405180910390a15b505b50505050505b565b6119be33613939565b6119da5760405162461bcd60e51b8152600401610a2290615488565b600b55565b600f60205281600052604060002081815481106119fb57600080fd5b90600052602060002001600091509150505481565b6000611a1d6009546120ef565b905090565b611a2b33613939565b611a475760405162461bcd60e51b8152600401610a2290615488565b6119b36000805160206156538339815191523361156d565b611a683361392d565b611a845760405162461bcd60e51b8152600401610a2290615293565b611a9c600080516020615613833981519152826112ff565b50565b6001600160a01b0381166000908152600f6020908152604080832080548251818502810185019093528083528493830182828015611afc57602002820191906000526020600020905b815481526020019060010190808311611ae8575b50505050509050805160001415611b165750600092915050565b60005b8151811015611b6e57611b52828281518110611b4557634e487b7160e01b600052603260045260246000fd5b60200260200101516124be565b611b5c9084615530565b9250611b67816155e1565b9050611b19565b5050919050565b611b7e33610cc2565b80611b8d5750611b8d3361392d565b611ba95760405162461bcd60e51b8152600401610a229061521f565b6001600160a01b038116611bcf5760405162461bcd60e51b8152600401610a2290615261565b336001600160a01b0382161415611bf85760405162461bcd60e51b8152600401610a2290615338565b611c10600080516020615613833981519152826112ff565b611a9c6000805160206156138339815191523361156d565b600754600090611c4083670de0b6b3a7640000615568565b6109779190615548565b611c5333610cc2565b80611c625750611c623361392d565b611c7e5760405162461bcd60e51b8152600401610a229061521f565b86611cb95760405162461bcd60e51b815260206004820152600b60248201526a0f4cae4de40d8cadccee8d60ab1b6044820152606401610a22565b868514611cff5760405162461bcd60e51b81526020600482015260146024820152730eee4dedcce40c4c2d8c2dcc6ca40d8cadccee8d60631b6044820152606401610a22565b868314611d445760405162461bcd60e51b81526020600482015260136024820152720eee4dedcce40e0cae4d2dec840d8cadccee8d606b1b6044820152606401610a22565b868114611d8a5760405162461bcd60e51b81526020600482015260146024820152730eee4dedcce40e8ded6cadc92c840d8cadccee8d60631b6044820152606401610a22565b60005b87811015611e5a57611e47898983818110611db857634e487b7160e01b600052603260045260246000fd5b9050602002016020810190611dcd9190614c5c565b888884818110611ded57634e487b7160e01b600052603260045260246000fd5b90506020020135878785818110611e1457634e487b7160e01b600052603260045260246000fd5b90506020020135868686818110611e3b57634e487b7160e01b600052603260045260246000fd5b905060200201356143be565b5080611e52816155e1565b915050611d8d565b505050505050505050565b60008180611e855760405162461bcd60e51b8152600401610a229061545c565b600083815260116020526040902060040154421115611eae57611ea7836133c7565b9150611eb3565b600091505b50919050565b611ec23361392d565b611ede5760405162461bcd60e51b8152600401610a2290615293565b6001600160a01b038116611f045760405162461bcd60e51b8152600401610a2290615261565b336001600160a01b0382161415611f2d5760405162461bcd60e51b8152600401610a2290615338565b611f386000826112ff565b611a9c60003361156d565b8180611f615760405162461bcd60e51b8152600401610a229061545c565b8180611f7f5760405162461bcd60e51b8152600401610a229061545c565b6000848152601160205260409020546001600160a01b0316338114611fb65760405162461bcd60e51b8152600401610a229061530a565b6001600160a01b03811660009081526010602090815260408083208884529091529020546001146120295760405162461bcd60e51b815260206004820152601f60248201527f69742773206e6f742073696d706c65207374616b696e672070726f64756374006044820152606401610a22565b612031611615565b61203e8186866000614453565b7f3580fad54ac878fb39f354ed4980379c99975b958cc12f96c2342daf1a943384818587604051610c9e93929190615080565b60009182526014602090815260408084206001600160a01b0393909316845291905290205460ff1690565b60004260036002015410156120b15750600090565b600554611a1d904290615587565b6120c83361392d565b6120e45760405162461bcd60e51b8152600401610a2290615293565b611a9c6000826145c0565b6000670de0b6b3a764000060075483611c409190615568565b60025460405163099e2b0b60e31b81526000916001600160a01b031690634cf158589061213c906009903390600401615503565b60206040518083038186803b15801561215457600080fd5b505afa158015612168573d6000803e3d6000fd5b505050506040513d601f19601f8201168201806040525081019061218c9190614e57565b6121a85760405162461bcd60e51b8152600401610a2290615368565b856001600160a01b0381166121cf5760405162461bcd60e51b8152600401610a22906152db565b6000861180156121df5750600084115b80156121eb5750600085115b6122245760405162461bcd60e51b815260206004820152600a6024820152691e995c9bc81a5b9c1d5d60b21b6044820152606401610a22565b6001546040516316045cb160e31b8152600091829173__$23c3f0c4d39c3898c699ac978f80cfe781$__9163b022e5889161226f916001600160a01b03169042908b90600401615080565b604080518083038186803b15801561228657600080fd5b505af415801561229a573d6000803e3d6000fd5b505050506040513d601f19601f820116820180604052508101906122be9190614f1b565b91509150600082116122e25760405162461bcd60e51b8152600401610a2290615403565b600081116123025760405162461bcd60e51b8152600401610a2290615192565b61230b896140fe565b6123136141a4565b935061231f89856141bf565b612327611615565b60006123368a868b858c614202565b905060006123468b8b8a876145ca565b6000878152601260209081526040808320849055838352601382529182902089905581516001600160a01b038f1681529081018d9052908101849052606081018a9052608081018b905260a0810188905260c0810182905260e081018990529091507f01477f4d2bc42b2a9cab1d8d62fff240cb575ef03884aace04d6e6655d483861906101000160405180910390a1505050505095945050505050565b6123ed33610cc2565b806123fc57506123fc3361392d565b6124185760405162461bcd60e51b8152600401610a229061521f565b6119b36000805160206156138339815191523361156d565b8061246b5760405162461bcd60e51b815260206004820152600b60248201526a6e6f207374616b6549647360a81b6044820152606401610a22565b8060005b818110156124b8576124a684848381811061249a57634e487b7160e01b600052603260045260246000fd5b90506020020135610fdd565b806124b0816155e1565b91505061246f565b50505050565b6000610977826133c7565b600081806124e95760405162461bcd60e51b8152600401610a229061545c565b600054604051636eb1769f60e11b815284916001600160a01b03169063dd62ed3e9061251b9033903090600401615066565b60206040518083038186803b15801561253357600080fd5b505afa158015612547573d6000803e3d6000fd5b505050506040513d601f19601f8201168201806040525081019061256b9190614ee2565b10156125895760405162461bcd60e51b8152600401610a22906151bb565b6000546125a1906001600160a01b0316333086614792565b336125ab816140fe565b6001600160a01b0381166000908152600f60205260409020805460019081106125e457634e487b7160e01b600052603260045260246000fd5b906000526020600020015492506125f9611615565b61261181848661260a426001615530565b6000614202565b507f1449c6dd7851abc30abf37f57715f492010519147cc2652fbc38202c18a6ee9081858560405161264593929190615080565b60405180910390a15050919050565b600081806126745760405162461bcd60e51b8152600401610a229061545c565b600083815260116020526040902060040154421115611eae57611ea7610784846133c7565b60008311806126a85750600082115b806126b35750600081115b6126f05760405162461bcd60e51b815260206004820152600e60248201526d185b1b081e995c9bc81a5b9c1d5d60921b6044820152606401610a22565b600084815260126020908152604080832054601190925290912080546001600160a01b03163381146127345760405162461bcd60e51b8152600401610a229061530a565b6001600160a01b03811660009081526010602090815260408083208a84529091529020546001106127b35760405162461bcd60e51b815260206004820152602360248201527f69742773206e6f7420666f722073696d706c65207374616b65206f7220656d706044820152623a3c9760e91b6064820152608401610a22565b60006127c283600201546120ef565b9050808611156127e45760405162461bcd60e51b8152600401610a22906153ce565b831561292357600154604051639ce5630560e01b8152600481018690526000916001600160a01b031690639ce563059060240160606040518083038186803b15801561282f57600080fd5b505afa158015612843573d6000803e3d6000fd5b505050506040513d601f19601f820116820180604052508101906128679190614f69565b50915050428110801561287d5750428460040154105b6128995760405162461bcd60e51b8152600401610a2290615398565b60015460405163c0a37b3f60e01b81526001600160a01b039091169063c0a37b3f906128cb90869089906004016150a1565b600060405180830381600087803b1580156128e557600080fd5b505af11580156128f9573d6000803e3d6000fd5b50505060008a81526012602090815260408083208390558883526013909152812055506129469050565b428360040154106129465760405162461bcd60e51b8152600401610a2290615398565b8615612a0457600054604051636eb1769f60e11b815288916001600160a01b03169063dd62ed3e9061297e9033903090600401615066565b60206040518083038186803b15801561299657600080fd5b505afa1580156129aa573d6000803e3d6000fd5b505050506040513d601f19601f820116820180604052508101906129ce9190614ee2565b10156129ec5760405162461bcd60e51b8152600401610a22906151bb565b600054612a04906001600160a01b031633308a614792565b6000808615612aac576001546040516316045cb160e31b815273__$23c3f0c4d39c3898c699ac978f80cfe781$__9163b022e58891612a53916001600160a01b03169042908c90600401615080565b604080518083038186803b158015612a6a57600080fd5b505af4158015612a7e573d6000803e3d6000fd5b505050506040513d601f19601f82011682018060405250810190612aa29190614f1b565b9092509050612b3c565b600160009054906101000a90046001600160a01b03166001600160a01b031663fd2dcecf6040518163ffffffff1660e01b815260040160206040518083038186803b158015612afa57600080fd5b505afa158015612b0e573d6000803e3d6000fd5b505050506040513d601f19601f82011682018060405250810190612b329190614ee2565b9150846004015490505b612b45846140fe565b612b4d611615565b612b598a828b8b61398b565b60008a8815612baa57612b6c8b86615530565b9450612b788a86615587565b9450612b8686868b876145ca565b60008281526012602090815260408083208490558383526013909152902082905591505b8915612bc757600054612bc7906001600160a01b0316338c613cda565b7fbc7a4cb4698ff9bbd20c2fa066bd7234e4dbb886a81ea2f45677f5f942c6e9e8868c8c8c8587604051612c00969594939291906150e8565b60405180910390a1505050505050505050505050565b612c1f3361392d565b612c3b5760405162461bcd60e51b8152600401610a2290615293565b611a9c600080516020615653833981519152826112ff565b8280612c715760405162461bcd60e51b8152600401610a229061545c565b6000831180612c805750600082115b612ccc5760405162461bcd60e51b815260206004820152601d60248201527f7a65726f205f616d6f756e7420616e64205f756e6c6f636b5765656b730000006044820152606401610a22565b6000848152601160205260409020546001600160a01b0316338114612d035760405162461bcd60e51b8152600401610a229061530a565b8215612d8d576001600160a01b0381166000908152601060209081526040808320888452909152902054600110612d8d5760405162461bcd60e51b815260206004820152602860248201527f697427732073696d706c65207374616b696e672070726f647563742c2063616e60448201526713ba103637b1b59760c11b6064820152608401610a22565b612d95611615565b612da181868686614453565b6001546040805163fd2dcecf60e01b815290516000926001600160a01b03169163fd2dcecf916004808301926020929190829003018186803b158015612de657600080fd5b505afa158015612dfa573d6000803e3d6000fd5b505050506040513d601f19601f82011682018060405250810190612e1e9190614ee2565b6000878152601260209081526040808320546001600160a01b0387168452601083528184208b855290925290912054919250906001108015612e5e575080155b8015612e6a5750600085115b15612ebe576000612e7d610784896133c7565b612e879088615530565b90506000612e97858389876145ca565b60008a815260126020908152604080832084905592825260139052208990555061334f9050565b6001600160a01b03831660009081526010602090815260408083208a84529091529020546001108015612ef15750600081115b1561334f57600154604051639ce5630560e01b81526004810183905260009182916001600160a01b0390911690639ce563059060240160606040518083038186803b158015612f3f57600080fd5b505afa158015612f53573d6000803e3d6000fd5b505050506040513d601f19601f82011682018060405250810190612f779190614f69565b92509250504282118015612f9b575060008981526011602052604090206004015442105b612fe25760405162461bcd60e51b81526020600482015260186024820152771b1bd8dac8195b99081d1a5b59481a185cc81c185cdcd95960421b6044820152606401610a22565b866131355760035460008a81526011602052604081206004015490919061300a904290615587565b6130149190615548565b600b546040516379e42f5d60e11b815291925060009173__$23c3f0c4d39c3898c699ac978f80cfe781$__9163f3c85eba91613056918e91879060040161551a565b60206040518083038186803b15801561306e57600080fd5b505af4158015613082573d6000803e3d6000fd5b505050506040513d601f19601f820116820180604052508101906130a69190614ee2565b9050600081116130c85760405162461bcd60e51b8152600401610a22906151ef565b60015460405163077f15b960e51b81526001600160a01b039091169063efe2b720906130fc908a9089908690600401615080565b600060405180830381600087803b15801561311657600080fd5b505af115801561312a573d6000803e3d6000fd5b50505050505061334c565b861561334c576003546000908190819061314f888c615568565b6131599190615548565b600b546040516379e42f5d60e11b815291925073__$23c3f0c4d39c3898c699ac978f80cfe781$__9163f3c85eba9161319991889190869060040161551a565b60206040518083038186803b1580156131b157600080fd5b505af41580156131c5573d6000803e3d6000fd5b505050506040513d601f19601f820116820180604052508101906131e99190614ee2565b92506131f58484615587565b92508a156132be5760035460009061320d898d615568565b6132174289615587565b6132219190615530565b61322b9190615548565b905073__$23c3f0c4d39c3898c699ac978f80cfe781$__63f3c85eba8d600b54846040518463ffffffff1660e01b815260040161326a9392919061551a565b60206040518083038186803b15801561328257600080fd5b505af4158015613296573d6000803e3d6000fd5b505050506040513d601f19601f820116820180604052508101906132ba9190614ee2565b9250505b6001546001600160a01b031663b839c0a589886132db8688615530565b6040516001600160e01b031960e086901b1681526001600160a01b03909316600484015260248301919091526044820152606481018d9052608401600060405180830381600087803b15801561333057600080fd5b505af1158015613344573d6000803e3d6000fd5b505050505050505b50505b7f8123201ee995a827ab51b6fa7437b3656f79bb6ce0ec96a8ec91516a335742068387878a856040516133869594939291906150ba565b60405180910390a150505050505050565b6133a03361392d565b6133bc5760405162461bcd60e51b8152600401610a2290615293565b6119b360003361156d565b60009081526011602052604090206002015490565b600082806133fc5760405162461bcd60e51b8152600401610a229061545c565b828061341a5760405162461bcd60e51b8152600401610a229061545c565b600b548061343a5760405162461bcd60e51b8152600401610a229061545c565b600054604051636eb1769f60e11b815287916001600160a01b03169063dd62ed3e9061346c9033903090600401615066565b60206040518083038186803b15801561348457600080fd5b505afa158015613498573d6000803e3d6000fd5b505050506040513d601f19601f820116820180604052508101906134bc9190614ee2565b10156134da5760405162461bcd60e51b8152600401610a22906151bb565b6001546040516316045cb160e31b8152600091829173__$23c3f0c4d39c3898c699ac978f80cfe781$__9163b022e58891613525916001600160a01b03169042908c90600401615080565b604080518083038186803b15801561353c57600080fd5b505af4158015613550573d6000803e3d6000fd5b505050506040513d601f19601f820116820180604052508101906135749190614f1b565b91509150600082116135985760405162461bcd60e51b8152600401610a2290615403565b600081116135b85760405162461bcd60e51b8152600401610a2290615192565b6000546135d0906001600160a01b031633308b614792565b336135da816140fe565b6135e26141a4565b96506135ee81886141bf565b6135f6611615565b61360481888b856000614202565b506000613613828b8b876145ca565b60008981526012602090815260408083208490558383526013909152908190208a9055519091507f354a6b3cd6afbe9ef2b8c8bbc20901d395d112a1891737da4aff281b283cca429061366f9084908d908d908d9087906150ba565b60405180910390a15050505050505092915050565b600080600260009054906101000a90046001600160a01b03166001600160a01b031663d11aca626040518163ffffffff1660e01b815260040160206040518083038186803b1580156136d557600080fd5b505afa1580156136e9573d6000803e3d6000fd5b505050506040513d601f19601f8201168201806040525081019061370d9190614ee2565b9050600061371961377f565b905060006137286009546120ef565b9050806137358385615530565b1015613745576000935050505090565b806137508385615530565b61375a9190615587565b935050505090565b61376b82610cad565b6137758133614014565b61131c8383614357565b600080546040516370a0823160e01b81526001600160a01b03909116906370a08231906137b0903090600401615052565b60206040518083038186803b1580156137c857600080fd5b505afa1580156137dc573d6000803e3d6000fd5b505050506040513d601f19601f82011682018060405250810190611a1d9190614ee2565b61380933613939565b6138255760405162461bcd60e51b8152600401610a2290615488565b80806138435760405162461bcd60e51b8152600401610a229061545c565b81600c5414156138835760405162461bcd60e51b815260206004820152600b60248201526a1cd85b59481c195c9a5bd960aa1b6044820152606401610a22565b50600c55565b61389233613939565b6138ae5760405162461bcd60e51b8152600401610a2290615488565b6001600160a01b0381166138d45760405162461bcd60e51b8152600401610a2290615261565b336001600160a01b03821614156138fd5760405162461bcd60e51b8152600401610a2290615338565b613915600080516020615653833981519152826112ff565b611a9c6000805160206156538339815191523361156d565b60006109778183612071565b600061097760008051602061565383398151915283612071565b6000670de0b6b3a7640000600b54670de0b6b3a76400006139749190615530565b6007546139819190615568565b611a1d9190615548565b6008546001146139ad5760405162461bcd60e51b8152600401610a22906154d1565b60006008819055848152601160205260409020546001600160a01b0316613a0c5760405162461bcd60e51b81526020600482015260136024820152726e6f6e2d6578697374207374616b65496e666f60681b6044820152606401610a22565b6000821180613a1b5750600081115b80613a265750600083115b613a615760405162461bcd60e51b815260206004820152600c60248201526b7a65726f20416d6f756e747360a01b6044820152606401610a22565b600084815260116020526040902060020154613aab5760405162461bcd60e51b81526020600482015260096024820152687a65726f204c544f5360b81b6044820152606401610a22565b600084815260116020526040812060020154613ac6906120ef565b905080821115613b175760405162461bcd60e51b815260206004820152601c60248201527b1cdd185ad948185b5bdd5b9d081a5cc81a5b9cdd59999a58da595b9d60221b6044820152606401610a22565b600085815260116020526040812081908515613b3957613b3686611c28565b92505b8415613b4b57613b4885611c28565b91505b426003820155600481018790556001810154600090851115613b79576001820154613b769086615587565b90505b8315613bb25783826002016000828254613b939190615530565b925050819055508360096000828254613bac9190615530565b90915550505b8215613beb5782826002016000828254613bcc9190615587565b925050819055508260096000828254613be59190615587565b90915550505b6000871180613bfa5750600081115b80613c055750600086115b15613c5f578581888460010154613c1c9190615530565b613c269190615530565b613c309190615587565b6001830155600a5486908290613c47908a90615530565b613c519190615530565b613c5b9190615587565b600a555b8015613cca57600254604051632a97f1e560e21b81526001600160a01b039091169063aa5fc79490613c9790309085906004016150a1565b600060405180830381600087803b158015613cb157600080fd5b505af1158015613cc5573d6000803e3d6000fd5b505050505b5050600160085550505050505050565b600080846001600160a01b031663a9059cbb60e01b8585604051602401613d029291906150a1565b60408051601f198184030181529181526020820180516001600160e01b03166001600160e01b0319909416939093179092529051613d409190614fc7565b6000604051808303816000865af19150503d8060008114613d7d576040519150601f19603f3d011682016040523d82523d6000602084013e613d82565b606091505b5091509150818015613dac575080511580613dac575080806020019051810190613dac9190614e57565b6119ad5760405162461bcd60e51b815260206004820152600f60248201526e1514905394d1915497d19052531151608a1b6044820152606401610a22565b6001600160a01b0382166000818152601060209081526040808320858452825280832054938352600f909152902054811015610977576001811115610977576001600160a01b0383166000908152600f6020526040902054613e4e90600190615587565b811015613f1d576001600160a01b0383166000908152600f602052604081208054613e7b90600190615587565b81548110613e9957634e487b7160e01b600052603260045260246000fd5b9060005260206000200154905080600f6000866001600160a01b03166001600160a01b031681526020019081526020016000208381548110613eeb57634e487b7160e01b600052603260045260246000fd5b60009182526020808320909101929092556001600160a01b038616815260108252604080822093825292909152208190555b6001600160a01b03831660008181526010602090815260408083208684528252808320839055928252600f905220805480613f6857634e487b7160e01b600052603160045260246000fd5b6001900381819060005260206000200160009055905592915050565b6001811115613fcc5750600090815260116020526040812080546001600160a01b03191681556001810182905560028101829055600381018290556004810182905560050155565b80600114156115e75750600090815260116020526040812080546001600160a01b03191681556001810182905560028101829055600381018290556004810182905560050155565b61401e8282612071565b6115e757614036816001600160a01b031660146148a5565b6140418360206148a5565b604051602001614052929190614fe3565b60408051601f198184030181529082905262461bcd60e51b8252610a229160040161515f565b6140828282612071565b6115e75760008281526014602090815260408083206001600160a01b03851684529091529020805460ff191660011790556140ba3390565b6001600160a01b0316816001600160a01b0316837f2f8788117e7eff1d82e926ec794901d17c78024a50270940304540a733656f0d60405160405180910390a45050565b6001600160a01b0381166000908152600f6020526040902054611a9c576001600160a01b0381166000908152600f602090815260408220805460018101825590835290822001819055600d805491614155836155e1565b90915550506001600160a01b03166000818152601060209081526040808320600d80548552908352818420600190819055948452600f8352908320905481549485018255908352912090910155565b6000600d600081546141b5906155e1565b9182905550919050565b6001600160a01b039091166000908152600f6020818152604080842080546010845282862087875284529185208290559282526001810183559183529091200155565b60006008546001146142265760405162461bcd60e51b8152600401610a22906154d1565b60006008819055858152601160205260409020546001600160a01b0316156142605760405162461bcd60e51b8152600401610a229061542f565b600061426b85611c28565b90506040518060c00160405280886001600160a01b03168152602001868152602001828152602001428152602001858152602001848152506011600088815260200190815260200160002060008201518160000160006101000a8154816001600160a01b0302191690836001600160a01b031602179055506020820151816001015560408201518160020155606082015181600301556080820151816004015560a0820151816005015590505084600a600082825461432a9190615530565b9250508190555080600960008282546143439190615530565b909155505060016008559695505050505050565b6143618282612071565b156115e75760008281526014602090815260408083206001600160a01b0385168085529252808320805460ff1916905551339285917ff6391f5c32d9c69d2a47ea670b442974b53935d1edc7fd64eb21e047a839171b9190a45050565b600083806143de5760405162461bcd60e51b8152600401610a229061545c565b83806143fc5760405162461bcd60e51b8152600401610a229061545c565b614405876140fe565b61440d6141a4565b925061441987846141bf565b614427878488886000614202565b505050600081815260126020908152604080832085905593825260139052919091208190559392505050565b811561451157600054604051636eb1769f60e11b815283916001600160a01b03169063dd62ed3e9061448b9088903090600401615066565b60206040518083038186803b1580156144a357600080fd5b505afa1580156144b7573d6000803e3d6000fd5b505050506040513d601f19601f820116820180604052508101906144db9190614ee2565b10156144f95760405162461bcd60e51b8152600401610a22906151bb565b600054614511906001600160a01b0316853085614792565b60008082156145b5576001546040516316045cb160e31b815273__$23c3f0c4d39c3898c699ac978f80cfe781$__9163b022e58891614561916001600160a01b0316906000908890600401615080565b604080518083038186803b15801561457857600080fd5b505af415801561458c573d6000803e3d6000fd5b505050506040513d601f19601f820116820180604052508101906145b09190614f1b565b925090505b6119ab858584614a8d565b6115e78282614078565b60006008546001146145ee5760405162461bcd60e51b8152600401610a22906154d1565b60006008819055600b5460035473__$23c3f0c4d39c3898c699ac978f80cfe781$__9163f3c85eba91889190614624888a615568565b61462e9190615548565b6040518463ffffffff1660e01b815260040161464c9392919061551a565b60206040518083038186803b15801561466457600080fd5b505af4158015614678573d6000803e3d6000fd5b505050506040513d601f19601f8201168201806040525081019061469c9190614ee2565b9050600081116146be5760405162461bcd60e51b8152600401610a22906151ef565b60015460405163036e72c360e21b81526001600160a01b0390911690630db9cb0c906146f290899085908990600401615080565b602060405180830381600087803b15801561470c57600080fd5b505af1158015614720573d6000803e3d6000fd5b505050506040513d601f19601f820116820180604052508101906147449190614ee2565b9150600082116147845760405162461bcd60e51b815260206004820152600b60248201526a1e995c9bc81cd513d4da5960aa1b6044820152606401610a22565b506001600855949350505050565b604080516001600160a01b0385811660248301528481166044830152606480830185905283518084039091018152608490920183526020820180516001600160e01b03166323b872dd60e01b17905291516000928392908816916147f69190614fc7565b6000604051808303816000865af19150503d8060008114614833576040519150601f19603f3d011682016040523d82523d6000602084013e614838565b606091505b50915091508180156148625750805115806148625750808060200190518101906148629190614e57565b6119ab5760405162461bcd60e51b81526020600482015260146024820152731514905394d1915497d19493d357d1905253115160621b6044820152606401610a22565b606060006148b4836002615568565b6148bf906002615530565b6001600160401b038111156148e457634e487b7160e01b600052604160045260246000fd5b6040519080825280601f01601f19166020018201604052801561490e576020820181803683370190505b509050600360fc1b8160008151811061493757634e487b7160e01b600052603260045260246000fd5b60200101906001600160f81b031916908160001a905350600f60fb1b8160018151811061497457634e487b7160e01b600052603260045260246000fd5b60200101906001600160f81b031916908160001a9053506000614998846002615568565b6149a3906001615530565b90505b6001811115614a37576f181899199a1a9b1b9c1cb0b131b232b360811b85600f16601081106149e557634e487b7160e01b600052603260045260246000fd5b1a60f81b828281518110614a0957634e487b7160e01b600052603260045260246000fd5b60200101906001600160f81b031916908160001a90535060049490941c93614a30816155ca565b90506149a6565b508315614a865760405162461bcd60e51b815260206004820181905260248201527f537472696e67733a20686578206c656e67746820696e73756666696369656e746044820152606401610a22565b9392505050565b600854600114614aaf5760405162461bcd60e51b8152600401610a22906154d1565b60006008819055838152601160205260409020546001600160a01b0316614ae85760405162461bcd60e51b8152600401610a229061542f565b6000821180614af75750600081115b614b435760405162461bcd60e51b815260206004820181905260248201527f7a65726f20616d6f756e7420616e64205f696e6372656173655365636f6e64736044820152606401610a22565b60008381526011602052604090208215614bcc576000614b6284611c28565b905083826001016000828254614b789190615530565b9250508190555080826002016000828254614b939190615530565b9250508190555083600a6000828254614bac9190615530565b925050819055508060096000828254614bc59190615530565b9091555050505b8115614bec5781816004016000828254614be69190615530565b90915550505b505060016008555050565b80356001600160a01b0381168114614c0e57600080fd5b919050565b60008083601f840112614c24578182fd5b5081356001600160401b03811115614c3a578182fd5b6020830191508360208260051b8501011115614c5557600080fd5b9250929050565b600060208284031215614c6d578081fd5b614a8682614bf7565b600080600060608486031215614c8a578182fd5b614c9384614bf7565b9250614ca160208501614bf7565b9150614caf60408501614bf7565b90509250925092565b60008060408385031215614cca578182fd5b614cd383614bf7565b946020939093013593505050565b60008060008060808587031215614cf6578081fd5b614cff85614bf7565b966020860135965060408601359560600135945092505050565b600080600080600060a08688031215614d30578081fd5b614d3986614bf7565b97602087013597506040870135966060810135965060800135945092505050565b6000806000806000806000806080898b031215614d75578283fd5b88356001600160401b0380821115614d8b578485fd5b614d978c838d01614c13565b909a50985060208b0135915080821115614daf578485fd5b614dbb8c838d01614c13565b909850965060408b0135915080821115614dd3578485fd5b614ddf8c838d01614c13565b909650945060608b0135915080821115614df7578384fd5b50614e048b828c01614c13565b999c989b5096995094979396929594505050565b60008060208385031215614e2a578182fd5b82356001600160401b03811115614e3f578283fd5b614e4b85828601614c13565b90969095509350505050565b600060208284031215614e68578081fd5b81518015158114614a86578182fd5b600060208284031215614e88578081fd5b5035919050565b60008060408385031215614ea1578182fd5b82359150614eb160208401614bf7565b90509250929050565b600060208284031215614ecb578081fd5b81356001600160e01b031981168114614a86578182fd5b600060208284031215614ef3578081fd5b5051919050565b60008060408385031215614f0c578081fd5b50508035926020909101359150565b60008060408385031215614f2d578182fd5b505080516020909101519092909150565b600080600060608486031215614f52578081fd5b505081359360208301359350604090920135919050565b600080600060608486031215614f7d578081fd5b8351925060208401519150604084015190509250925092565b60008060008060808587031215614fab578182fd5b5050823594602084013594506040840135936060013592509050565b60008251614fd981846020870161559e565b9190910192915050565b76020b1b1b2b9b9a1b7b73a3937b61d1030b1b1b7bab73a1604d1b81526000835161501581601785016020880161559e565b7001034b99036b4b9b9b4b733903937b6329607d1b601791840191820152835161504681602884016020880161559e565b01602801949350505050565b6001600160a01b0391909116815260200190565b6001600160a01b0392831681529116602082015260400190565b6001600160a01b039390931683526020830191909152604082015260600190565b6001600160a01b03929092168252602082015260400190565b6001600160a01b03959095168552602085019390935260408401919091526060830152608082015260a00190565b6001600160a01b03969096168652602086019490945260408501929092526060840152608083015260a082015260c00190565b6020808252825182820181905260009190848201906040850190845b8181101561515357835183529284019291840191600101615137565b50909695505050505050565b602081526000825180602084015261517e81604085016020870161559e565b601f01601f19169190910160400192915050565b6020808252600f908201526e7a65726f20756e6c6f636b54696d6560881b604082015260600190565b6020808252601a908201527930b63637bbb0b731b29034b99034b739bab33334b1b4b2b73a1760311b604082015260600190565b6020808252601690820152751e995c9bc818dbdb5c1bdd5b99195908185b5bdd5b9d60521b604082015260600190565b60208082526022908201527f41636365737369626c653a2043616c6c6572206973206e6f7420616e2061646d60408201526134b760f11b606082015260800190565b60208082526018908201527741636365737369626c653a207a65726f206164647265737360401b604082015260600190565b60208082526028908201527f41636365737369626c653a2043616c6c6572206973206e6f7420616e2070726f6040820152673c3c9030b236b4b760c11b606082015260800190565b6020808252601590820152745374616b696e673a207a65726f206164647265737360581b604082015260600190565b60208082526014908201527331b0b63632b91034b9903737ba1039ba30b5b2b960611b604082015260600190565b60208082526016908201527520b1b1b2b9b9b4b136329d1039b0b6b29030b236b4b760511b604082015260600190565b60208082526016908201527539b2b73232b91034b9903737ba1030903137b73232b960511b604082015260600190565b6020808252601c908201527b1b1bd8dac8195b99081d1a5b59481a185cc81b9bdd081c185cdcd95960221b604082015260600190565b6020808252601b908201527a1c995b585a5b9959151bdcc81a5cc81a5b9cdd59999a58da595b9d602a1b604082015260600190565b6020808252601290820152711e995c9bc81cd51bdcd15c1bd8da155b9a5d60721b604082015260600190565b6020808252601390820152726e6f6e2d656d707479207374616b65496e666f60681b604082015260600190565b60208082526012908201527114dd185ada5b99ce881e995c9bc81d5a5b9d60721b604082015260600190565b60208082526029908201527f41636365737369626c653a2043616c6c6572206973206e6f7420616e20706f6c60408201526834b1bc9030b236b4b760b91b606082015260800190565b6020808252601890820152774c6f636b496420697320616c726561647920696e2075736560401b604082015260600190565b9182526001600160a01b0316602082015260400190565b9283526020830191909152604082015260600190565b60008219821115615543576155436155fc565b500190565b60008261556357634e487b7160e01b81526012600452602481fd5b500490565b6000816000190483118215151615615582576155826155fc565b500290565b600082821015615599576155996155fc565b500390565b60005b838110156155b95781810151838201526020016155a1565b838111156124b85750506000910152565b6000816155d9576155d96155fc565b506000190190565b60006000198214156155f5576155f56155fc565b5060010190565b634e487b7160e01b600052601160045260246000fdfe52eafc11f6f81f86878bffd31109a0d92f37506527754f00788853ff9f63b130d1a8a452d776b1b6802824ca2e8489c6448e2cb0963f552a9a19ab4ae064ca58fb5864e8ff833c3cb2d2d08505e82ff02a43554c74a35d4f5a64e85261278311a26469706673582212201f8a1e2c4b54db4dffddb38011f88b7677706ff487c47f6de36d3655532c6f4b64736f6c63430008040033",
  "linkReferences": {
    "contracts/libraries/LibStaking.sol": {
      "LibStaking": [
        {
          "length": 20,
          "start": 3762
        },
        {
          "length": 20,
          "start": 3966
        },
        {
          "length": 20,
          "start": 5851
        },
        {
          "length": 20,
          "start": 6169
        },
        {
          "length": 20,
          "start": 6356
        },
        {
          "length": 20,
          "start": 8801
        },
        {
          "length": 20,
          "start": 10821
        },
        {
          "length": 20,
          "start": 12370
        },
        {
          "length": 20,
          "start": 12692
        },
        {
          "length": 20,
          "start": 12885
        },
        {
          "length": 20,
          "start": 13591
        },
        {
          "length": 20,
          "start": 17746
        },
        {
          "length": 20,
          "start": 17955
        }
      ]
    }
  },
  "deployedLinkReferences": {
    "contracts/libraries/LibStaking.sol": {
      "LibStaking": [
        {
          "length": 20,
          "start": 3724
        },
        {
          "length": 20,
          "start": 3928
        },
        {
          "length": 20,
          "start": 5813
        },
        {
          "length": 20,
          "start": 6131
        },
        {
          "length": 20,
          "start": 6318
        },
        {
          "length": 20,
          "start": 8763
        },
        {
          "length": 20,
          "start": 10783
        },
        {
          "length": 20,
          "start": 12332
        },
        {
          "length": 20,
          "start": 12654
        },
        {
          "length": 20,
          "start": 12847
        },
        {
          "length": 20,
          "start": 13553
        },
        {
          "length": 20,
          "start": 17708
        },
        {
          "length": 20,
          "start": 17917
        }
      ]
    }
  }
}