{
  "_format": "hh-sol-artifact-1",
  "contractName": "StakingV2",
  "sourceName": "contracts/StakingV2.sol",
  "abi": [
    {
      "inputs": [],
      "stateMutability": "nonpayable",
      "type": "constructor"
    },
    {
      "anonymous": false,
      "inputs": [
        {
          "indexed": false,
          "internalType": "address",
          "name": "staker",
          "type": "address"
        },
        {
          "indexed": false,
          "internalType": "uint256",
          "name": "claimAmount",
          "type": "uint256"
        },
        {
          "indexed": false,
          "internalType": "uint256",
          "name": "stakeId",
          "type": "uint256"
        }
      ],
      "name": "ClaimdForNonLock",
      "type": "event"
    },
    {
      "anonymous": false,
      "inputs": [
        {
          "indexed": false,
          "internalType": "address",
          "name": "to",
          "type": "address"
        },
        {
          "indexed": false,
          "internalType": "uint256",
          "name": "amount",
          "type": "uint256"
        },
        {
          "indexed": false,
          "internalType": "uint256",
          "name": "stakeId",
          "type": "uint256"
        }
      ],
      "name": "IncreasedAmountForSimpleStake",
      "type": "event"
    },
    {
      "anonymous": false,
      "inputs": [
        {
          "indexed": false,
          "internalType": "address",
          "name": "staker",
          "type": "address"
        },
        {
          "indexed": false,
          "internalType": "uint256",
          "name": "amount",
          "type": "uint256"
        },
        {
          "indexed": false,
          "internalType": "uint256",
          "name": "unlockWeeks",
          "type": "uint256"
        },
        {
          "indexed": false,
          "internalType": "uint256",
          "name": "stakeId",
          "type": "uint256"
        },
        {
          "indexed": false,
          "internalType": "uint256",
          "name": "stosId",
          "type": "uint256"
        }
      ],
      "name": "IncreasedBeforeEndOrNonEnd",
      "type": "event"
    },
    {
      "anonymous": false,
      "inputs": [
        {
          "indexed": false,
          "internalType": "uint256",
          "name": "oldIndex",
          "type": "uint256"
        },
        {
          "indexed": false,
          "internalType": "uint256",
          "name": "newIndex",
          "type": "uint256"
        },
        {
          "indexed": false,
          "internalType": "uint256",
          "name": "totalLTOS",
          "type": "uint256"
        }
      ],
      "name": "Rebased",
      "type": "event"
    },
    {
      "anonymous": false,
      "inputs": [
        {
          "indexed": false,
          "internalType": "address",
          "name": "to",
          "type": "address"
        },
        {
          "indexed": false,
          "internalType": "uint256",
          "name": "addAmount",
          "type": "uint256"
        },
        {
          "indexed": false,
          "internalType": "uint256",
          "name": "claimAmount",
          "type": "uint256"
        },
        {
          "indexed": false,
          "internalType": "uint256",
          "name": "periodWeeks",
          "type": "uint256"
        },
        {
          "indexed": false,
          "internalType": "uint256",
          "name": "stakeId",
          "type": "uint256"
        },
        {
          "indexed": false,
          "internalType": "uint256",
          "name": "stosId",
          "type": "uint256"
        }
      ],
      "name": "ResetStakedGetStosAfterLock",
      "type": "event"
    },
    {
      "anonymous": false,
      "inputs": [
        {
          "indexed": true,
          "internalType": "bytes32",
          "name": "role",
          "type": "bytes32"
        },
        {
          "indexed": true,
          "internalType": "bytes32",
          "name": "previousAdminRole",
          "type": "bytes32"
        },
        {
          "indexed": true,
          "internalType": "bytes32",
          "name": "newAdminRole",
          "type": "bytes32"
        }
      ],
      "name": "RoleAdminChanged",
      "type": "event"
    },
    {
      "anonymous": false,
      "inputs": [
        {
          "indexed": true,
          "internalType": "bytes32",
          "name": "role",
          "type": "bytes32"
        },
        {
          "indexed": true,
          "internalType": "address",
          "name": "account",
          "type": "address"
        },
        {
          "indexed": true,
          "internalType": "address",
          "name": "sender",
          "type": "address"
        }
      ],
      "name": "RoleGranted",
      "type": "event"
    },
    {
      "anonymous": false,
      "inputs": [
        {
          "indexed": true,
          "internalType": "bytes32",
          "name": "role",
          "type": "bytes32"
        },
        {
          "indexed": true,
          "internalType": "address",
          "name": "account",
          "type": "address"
        },
        {
          "indexed": true,
          "internalType": "address",
          "name": "sender",
          "type": "address"
        }
      ],
      "name": "RoleRevoked",
      "type": "event"
    },
    {
      "anonymous": false,
      "inputs": [
        {
          "indexed": false,
          "internalType": "address",
          "name": "to",
          "type": "address"
        },
        {
          "indexed": false,
          "internalType": "uint256",
          "name": "amount",
          "type": "uint256"
        },
        {
          "indexed": false,
          "internalType": "uint256",
          "name": "stakeId",
          "type": "uint256"
        }
      ],
      "name": "Staked",
      "type": "event"
    },
    {
      "anonymous": false,
      "inputs": [
        {
          "indexed": false,
          "internalType": "address",
          "name": "to",
          "type": "address"
        },
        {
          "indexed": false,
          "internalType": "uint256",
          "name": "amount",
          "type": "uint256"
        },
        {
          "indexed": false,
          "internalType": "uint256",
          "name": "marketId",
          "type": "uint256"
        },
        {
          "indexed": false,
          "internalType": "uint256",
          "name": "stakeId",
          "type": "uint256"
        }
      ],
      "name": "StakedByBond",
      "type": "event"
    },
    {
      "anonymous": false,
      "inputs": [
        {
          "indexed": false,
          "internalType": "address",
          "name": "to",
          "type": "address"
        },
        {
          "indexed": false,
          "internalType": "uint256",
          "name": "amount",
          "type": "uint256"
        },
        {
          "indexed": false,
          "internalType": "uint256",
          "name": "periodWeeks",
          "type": "uint256"
        },
        {
          "indexed": false,
          "internalType": "uint256",
          "name": "stakeId",
          "type": "uint256"
        },
        {
          "indexed": false,
          "internalType": "uint256",
          "name": "stosId",
          "type": "uint256"
        }
      ],
      "name": "StakedGetStos",
      "type": "event"
    },
    {
      "anonymous": false,
      "inputs": [
        {
          "indexed": false,
          "internalType": "address",
          "name": "to",
          "type": "address"
        },
        {
          "indexed": false,
          "internalType": "uint256",
          "name": "amount",
          "type": "uint256"
        },
        {
          "indexed": false,
          "internalType": "uint256",
          "name": "periodWeeks",
          "type": "uint256"
        },
        {
          "indexed": false,
          "internalType": "uint256",
          "name": "marketId",
          "type": "uint256"
        },
        {
          "indexed": false,
          "internalType": "uint256",
          "name": "stakeId",
          "type": "uint256"
        },
        {
          "indexed": false,
          "internalType": "uint256",
          "name": "stosId",
          "type": "uint256"
        }
      ],
      "name": "StakedGetStosByBond",
      "type": "event"
    },
    {
      "anonymous": false,
      "inputs": [
        {
          "indexed": false,
          "internalType": "address",
          "name": "staker",
          "type": "address"
        },
        {
          "indexed": false,
          "internalType": "uint256",
          "name": "amount",
          "type": "uint256"
        },
        {
          "indexed": false,
          "internalType": "uint256",
          "name": "stakeId",
          "type": "uint256"
        }
      ],
      "name": "Unstaked",
      "type": "event"
    },
    {
      "inputs": [],
      "name": "ADMIN_ROLE",
      "outputs": [
        {
          "internalType": "bytes32",
          "name": "",
          "type": "bytes32"
        }
      ],
      "stateMutability": "view",
      "type": "function"
    },
    {
      "inputs": [],
      "name": "DEFAULT_ADMIN_ROLE",
      "outputs": [
        {
          "internalType": "bytes32",
          "name": "",
          "type": "bytes32"
        }
      ],
      "stateMutability": "view",
      "type": "function"
    },
    {
      "inputs": [],
      "name": "POLICY_ROLE",
      "outputs": [
        {
          "internalType": "bytes32",
          "name": "",
          "type": "bytes32"
        }
      ],
      "stateMutability": "view",
      "type": "function"
    },
    {
      "inputs": [],
      "name": "PROJECT_ADMIN_ROLE",
      "outputs": [
        {
          "internalType": "bytes32",
          "name": "",
          "type": "bytes32"
        }
      ],
      "stateMutability": "view",
      "type": "function"
    },
    {
      "inputs": [],
      "name": "TOS",
      "outputs": [
        {
          "internalType": "contract IERC20",
          "name": "",
          "type": "address"
        }
      ],
      "stateMutability": "view",
      "type": "function"
    },
    {
      "inputs": [
        {
          "internalType": "address",
          "name": "account",
          "type": "address"
        }
      ],
      "name": "addAdmin",
      "outputs": [],
      "stateMutability": "nonpayable",
      "type": "function"
    },
    {
      "inputs": [
        {
          "internalType": "address",
          "name": "_account",
          "type": "address"
        }
      ],
      "name": "addPolicy",
      "outputs": [],
      "stateMutability": "nonpayable",
      "type": "function"
    },
    {
      "inputs": [
        {
          "internalType": "address",
          "name": "_owner",
          "type": "address"
        }
      ],
      "name": "addProxyAdmin",
      "outputs": [],
      "stateMutability": "nonpayable",
      "type": "function"
    },
    {
      "inputs": [
        {
          "internalType": "uint256",
          "name": "",
          "type": "uint256"
        }
      ],
      "name": "allStakings",
      "outputs": [
        {
          "internalType": "address",
          "name": "staker",
          "type": "address"
        },
        {
          "internalType": "uint256",
          "name": "deposit",
          "type": "uint256"
        },
        {
          "internalType": "uint256",
          "name": "LTOS",
          "type": "uint256"
        },
        {
          "internalType": "uint256",
          "name": "endTime",
          "type": "uint256"
        },
        {
          "internalType": "uint256",
          "name": "marketId",
          "type": "uint256"
        }
      ],
      "stateMutability": "view",
      "type": "function"
    },
    {
      "inputs": [
        {
          "internalType": "address",
          "name": "_addr",
          "type": "address"
        }
      ],
      "name": "balanceOf",
      "outputs": [
        {
          "internalType": "uint256",
          "name": "balance",
          "type": "uint256"
        }
      ],
      "stateMutability": "view",
      "type": "function"
    },
    {
      "inputs": [
        {
          "internalType": "uint256",
          "name": "_stakeId",
          "type": "uint256"
        }
      ],
      "name": "balanceOfId",
      "outputs": [
        {
          "internalType": "uint256",
          "name": "",
          "type": "uint256"
        }
      ],
      "stateMutability": "view",
      "type": "function"
    },
    {
      "inputs": [],
      "name": "basicBondPeriod",
      "outputs": [
        {
          "internalType": "uint256",
          "name": "",
          "type": "uint256"
        }
      ],
      "stateMutability": "view",
      "type": "function"
    },
    {
      "inputs": [
        {
          "internalType": "uint256",
          "name": "_stakeId",
          "type": "uint256"
        },
        {
          "internalType": "uint256",
          "name": "_claimAmount",
          "type": "uint256"
        }
      ],
      "name": "claimForSimpleType",
      "outputs": [],
      "stateMutability": "nonpayable",
      "type": "function"
    },
    {
      "inputs": [
        {
          "internalType": "uint256",
          "name": "_stakeId",
          "type": "uint256"
        }
      ],
      "name": "claimableLtos",
      "outputs": [
        {
          "internalType": "uint256",
          "name": "",
          "type": "uint256"
        }
      ],
      "stateMutability": "view",
      "type": "function"
    },
    {
      "inputs": [
        {
          "internalType": "uint256",
          "name": "_stakeId",
          "type": "uint256"
        }
      ],
      "name": "claimableTos",
      "outputs": [
        {
          "internalType": "uint256",
          "name": "",
          "type": "uint256"
        }
      ],
      "stateMutability": "view",
      "type": "function"
    },
    {
      "inputs": [
        {
          "internalType": "uint256",
          "name": "",
          "type": "uint256"
        }
      ],
      "name": "connectId",
      "outputs": [
        {
          "internalType": "uint256",
          "name": "",
          "type": "uint256"
        }
      ],
      "stateMutability": "view",
      "type": "function"
    },
    {
      "inputs": [],
      "name": "epoch",
      "outputs": [
        {
          "internalType": "uint256",
          "name": "length_",
          "type": "uint256"
        },
        {
          "internalType": "uint256",
          "name": "number",
          "type": "uint256"
        },
        {
          "internalType": "uint256",
          "name": "end",
          "type": "uint256"
        }
      ],
      "stateMutability": "view",
      "type": "function"
    },
    {
      "inputs": [],
      "name": "generateMarketId",
      "outputs": [
        {
          "internalType": "uint256",
          "name": "",
          "type": "uint256"
        }
      ],
      "stateMutability": "nonpayable",
      "type": "function"
    },
    {
      "inputs": [],
      "name": "getIndex",
      "outputs": [
        {
          "internalType": "uint256",
          "name": "",
          "type": "uint256"
        }
      ],
      "stateMutability": "view",
      "type": "function"
    },
    {
      "inputs": [
        {
          "internalType": "uint256",
          "name": "ltos",
          "type": "uint256"
        }
      ],
      "name": "getLtosToTos",
      "outputs": [
        {
          "internalType": "uint256",
          "name": "",
          "type": "uint256"
        }
      ],
      "stateMutability": "view",
      "type": "function"
    },
    {
      "inputs": [
        {
          "internalType": "bytes32",
          "name": "role",
          "type": "bytes32"
        }
      ],
      "name": "getRoleAdmin",
      "outputs": [
        {
          "internalType": "bytes32",
          "name": "",
          "type": "bytes32"
        }
      ],
      "stateMutability": "view",
      "type": "function"
    },
    {
      "inputs": [
        {
          "internalType": "uint256",
          "name": "amount",
          "type": "uint256"
        }
      ],
      "name": "getTosToLtos",
      "outputs": [
        {
          "internalType": "uint256",
          "name": "",
          "type": "uint256"
        }
      ],
      "stateMutability": "view",
      "type": "function"
    },
    {
      "inputs": [
        {
          "internalType": "bytes32",
          "name": "role",
          "type": "bytes32"
        },
        {
          "internalType": "address",
          "name": "account",
          "type": "address"
        }
      ],
      "name": "grantRole",
      "outputs": [],
      "stateMutability": "nonpayable",
      "type": "function"
    },
    {
      "inputs": [
        {
          "internalType": "bytes32",
          "name": "role",
          "type": "bytes32"
        },
        {
          "internalType": "address",
          "name": "account",
          "type": "address"
        }
      ],
      "name": "hasRole",
      "outputs": [
        {
          "internalType": "bool",
          "name": "",
          "type": "bool"
        }
      ],
      "stateMutability": "view",
      "type": "function"
    },
    {
      "inputs": [
        {
          "internalType": "uint256",
          "name": "_stakeId",
          "type": "uint256"
        },
        {
          "internalType": "uint256",
          "name": "_amount",
          "type": "uint256"
        }
      ],
      "name": "increaseAmountForSimpleStake",
      "outputs": [],
      "stateMutability": "nonpayable",
      "type": "function"
    },
    {
      "inputs": [
        {
          "internalType": "uint256",
          "name": "_stakeId",
          "type": "uint256"
        },
        {
          "internalType": "uint256",
          "name": "_amount",
          "type": "uint256"
        },
        {
          "internalType": "uint256",
          "name": "_unlockWeeks",
          "type": "uint256"
        }
      ],
      "name": "increaseBeforeEndOrNonEnd",
      "outputs": [],
      "stateMutability": "nonpayable",
      "type": "function"
    },
    {
      "inputs": [],
      "name": "index_",
      "outputs": [
        {
          "internalType": "uint256",
          "name": "",
          "type": "uint256"
        }
      ],
      "stateMutability": "view",
      "type": "function"
    },
    {
      "inputs": [
        {
          "internalType": "address",
          "name": "account",
          "type": "address"
        }
      ],
      "name": "isAdmin",
      "outputs": [
        {
          "internalType": "bool",
          "name": "",
          "type": "bool"
        }
      ],
      "stateMutability": "view",
      "type": "function"
    },
    {
      "inputs": [
        {
          "internalType": "address",
          "name": "account",
          "type": "address"
        }
      ],
      "name": "isPolicy",
      "outputs": [
        {
          "internalType": "bool",
          "name": "",
          "type": "bool"
        }
      ],
      "stateMutability": "view",
      "type": "function"
    },
    {
      "inputs": [
        {
          "internalType": "address",
          "name": "account",
          "type": "address"
        }
      ],
      "name": "isProxyAdmin",
      "outputs": [
        {
          "internalType": "bool",
          "name": "",
          "type": "bool"
        }
      ],
      "stateMutability": "view",
      "type": "function"
    },
    {
      "inputs": [],
      "name": "lockTOS",
      "outputs": [
        {
          "internalType": "address",
          "name": "",
          "type": "address"
        }
      ],
      "stateMutability": "view",
      "type": "function"
    },
    {
      "inputs": [
        {
          "internalType": "uint256",
          "name": "",
          "type": "uint256"
        }
      ],
      "name": "lockTOSId",
      "outputs": [
        {
          "internalType": "uint256",
          "name": "",
          "type": "uint256"
        }
      ],
      "stateMutability": "view",
      "type": "function"
    },
    {
      "inputs": [],
      "name": "marketIdCounter",
      "outputs": [
        {
          "internalType": "uint256",
          "name": "",
          "type": "uint256"
        }
      ],
      "stateMutability": "view",
      "type": "function"
    },
    {
      "inputs": [
        {
          "internalType": "uint256[]",
          "name": "_stakeIds",
          "type": "uint256[]"
        }
      ],
      "name": "multiUnstake",
      "outputs": [],
      "stateMutability": "nonpayable",
      "type": "function"
    },
    {
      "inputs": [],
      "name": "nextIndex",
      "outputs": [
        {
          "internalType": "uint256",
          "name": "",
          "type": "uint256"
        }
      ],
      "stateMutability": "view",
      "type": "function"
    },
    {
      "inputs": [],
      "name": "rebaseIndex",
      "outputs": [],
      "stateMutability": "nonpayable",
      "type": "function"
    },
    {
      "inputs": [],
      "name": "rebasePerEpoch",
      "outputs": [
        {
          "internalType": "uint256",
          "name": "",
          "type": "uint256"
        }
      ],
      "stateMutability": "view",
      "type": "function"
    },
    {
      "inputs": [
        {
          "internalType": "uint256",
          "name": "_stakeId",
          "type": "uint256"
        }
      ],
      "name": "remainedLTOS",
      "outputs": [
        {
          "internalType": "uint256",
          "name": "",
          "type": "uint256"
        }
      ],
      "stateMutability": "view",
      "type": "function"
    },
    {
      "inputs": [
        {
          "internalType": "uint256",
          "name": "_stakeId",
          "type": "uint256"
        }
      ],
      "name": "remainedLTOSToTos",
      "outputs": [
        {
          "internalType": "uint256",
          "name": "",
          "type": "uint256"
        }
      ],
      "stateMutability": "view",
      "type": "function"
    },
    {
      "inputs": [],
      "name": "removeAdmin",
      "outputs": [],
      "stateMutability": "nonpayable",
      "type": "function"
    },
    {
      "inputs": [],
      "name": "removePolicy",
      "outputs": [],
      "stateMutability": "nonpayable",
      "type": "function"
    },
    {
      "inputs": [],
      "name": "removeProxyAdmin",
      "outputs": [],
      "stateMutability": "nonpayable",
      "type": "function"
    },
    {
      "inputs": [
        {
          "internalType": "bytes32",
          "name": "role",
          "type": "bytes32"
        },
        {
          "internalType": "address",
          "name": "account",
          "type": "address"
        }
      ],
      "name": "renounceRole",
      "outputs": [],
      "stateMutability": "nonpayable",
      "type": "function"
    },
    {
      "inputs": [
        {
          "internalType": "uint256",
          "name": "_stakeId",
          "type": "uint256"
        },
        {
          "internalType": "uint256",
          "name": "_addAmount",
          "type": "uint256"
        },
        {
          "internalType": "uint256",
          "name": "_claimAmount",
          "type": "uint256"
        },
        {
          "internalType": "uint256",
          "name": "_periodWeeks",
          "type": "uint256"
        }
      ],
      "name": "resetStakeGetStosAfterLock",
      "outputs": [],
      "stateMutability": "nonpayable",
      "type": "function"
    },
    {
      "inputs": [
        {
          "internalType": "bytes32",
          "name": "role",
          "type": "bytes32"
        },
        {
          "internalType": "address",
          "name": "account",
          "type": "address"
        }
      ],
      "name": "revokeRole",
      "outputs": [],
      "stateMutability": "nonpayable",
      "type": "function"
    },
    {
      "inputs": [],
      "name": "runwayTOS",
      "outputs": [
        {
          "internalType": "uint256",
          "name": "",
          "type": "uint256"
        }
      ],
      "stateMutability": "view",
      "type": "function"
    },
    {
      "inputs": [],
      "name": "secondsToNextEpoch",
      "outputs": [
        {
          "internalType": "uint256",
          "name": "",
          "type": "uint256"
        }
      ],
      "stateMutability": "view",
      "type": "function"
    },
    {
      "inputs": [
        {
          "internalType": "address",
          "name": "_tos",
          "type": "address"
        },
        {
          "internalType": "address",
          "name": "_lockTOS",
          "type": "address"
        },
        {
          "internalType": "address",
          "name": "_treasury",
          "type": "address"
        }
      ],
      "name": "setAddressInfos",
      "outputs": [],
      "stateMutability": "nonpayable",
      "type": "function"
    },
    {
      "inputs": [
        {
          "internalType": "uint256",
          "name": "_period",
          "type": "uint256"
        }
      ],
      "name": "setBasicBondPeriod",
      "outputs": [],
      "stateMutability": "nonpayable",
      "type": "function"
    },
    {
      "inputs": [
        {
          "internalType": "uint256",
          "name": "_index",
          "type": "uint256"
        }
      ],
      "name": "setIndex",
      "outputs": [],
      "stateMutability": "nonpayable",
      "type": "function"
    },
    {
      "inputs": [
        {
          "internalType": "uint256",
          "name": "_rebasePerEpoch",
          "type": "uint256"
        }
      ],
      "name": "setRebasePerEpoch",
      "outputs": [],
      "stateMutability": "nonpayable",
      "type": "function"
    },
    {
      "inputs": [
        {
          "internalType": "uint256",
          "name": "_amount",
          "type": "uint256"
        }
      ],
      "name": "stake",
      "outputs": [
        {
          "internalType": "uint256",
          "name": "stakeId",
          "type": "uint256"
        }
      ],
      "stateMutability": "nonpayable",
      "type": "function"
    },
    {
      "inputs": [
        {
          "internalType": "address",
          "name": "to",
          "type": "address"
        },
        {
          "internalType": "uint256",
          "name": "_amount",
          "type": "uint256"
        },
        {
          "internalType": "uint256",
          "name": "_marketId",
          "type": "uint256"
        }
      ],
      "name": "stakeByBond",
      "outputs": [
        {
          "internalType": "uint256",
          "name": "stakeId",
          "type": "uint256"
        }
      ],
      "stateMutability": "nonpayable",
      "type": "function"
    },
    {
      "inputs": [
        {
          "internalType": "uint256",
          "name": "_amount",
          "type": "uint256"
        },
        {
          "internalType": "uint256",
          "name": "_periodWeeks",
          "type": "uint256"
        }
      ],
      "name": "stakeGetStos",
      "outputs": [
        {
          "internalType": "uint256",
          "name": "stakeId",
          "type": "uint256"
        }
      ],
      "stateMutability": "nonpayable",
      "type": "function"
    },
    {
      "inputs": [
        {
          "internalType": "address",
          "name": "_to",
          "type": "address"
        },
        {
          "internalType": "uint256",
          "name": "_amount",
          "type": "uint256"
        },
        {
          "internalType": "uint256",
          "name": "_marketId",
          "type": "uint256"
        },
        {
          "internalType": "uint256",
          "name": "_periodWeeks",
          "type": "uint256"
        }
      ],
      "name": "stakeGetStosByBond",
      "outputs": [
        {
          "internalType": "uint256",
          "name": "stakeId",
          "type": "uint256"
        }
      ],
      "stateMutability": "nonpayable",
      "type": "function"
    },
    {
      "inputs": [
        {
          "internalType": "uint256",
          "name": "stakeId",
          "type": "uint256"
        }
      ],
      "name": "stakeInfo",
      "outputs": [
        {
          "internalType": "address",
          "name": "staker",
          "type": "address"
        },
        {
          "internalType": "uint256",
          "name": "deposit",
          "type": "uint256"
        },
        {
          "internalType": "uint256",
          "name": "LTOS",
          "type": "uint256"
        },
        {
          "internalType": "uint256",
          "name": "endTime",
          "type": "uint256"
        },
        {
          "internalType": "uint256",
          "name": "marketId",
          "type": "uint256"
        }
      ],
      "stateMutability": "view",
      "type": "function"
    },
    {
      "inputs": [
        {
          "internalType": "uint256",
          "name": "stakeId",
          "type": "uint256"
        }
      ],
      "name": "stakedOf",
      "outputs": [
        {
          "internalType": "uint256",
          "name": "",
          "type": "uint256"
        }
      ],
      "stateMutability": "view",
      "type": "function"
    },
    {
      "inputs": [],
      "name": "stakedOfAll",
      "outputs": [
        {
          "internalType": "uint256",
          "name": "",
          "type": "uint256"
        }
      ],
      "stateMutability": "view",
      "type": "function"
    },
    {
      "inputs": [],
      "name": "stakingIdCounter",
      "outputs": [
        {
          "internalType": "uint256",
          "name": "",
          "type": "uint256"
        }
      ],
      "stateMutability": "view",
      "type": "function"
    },
    {
      "inputs": [
        {
          "internalType": "address",
          "name": "_addr",
          "type": "address"
        }
      ],
      "name": "stakingOf",
      "outputs": [
        {
          "internalType": "uint256[]",
          "name": "",
          "type": "uint256[]"
        }
      ],
      "stateMutability": "view",
      "type": "function"
    },
    {
      "inputs": [],
      "name": "stakingPrincipal",
      "outputs": [
        {
          "internalType": "uint256",
          "name": "",
          "type": "uint256"
        }
      ],
      "stateMutability": "view",
      "type": "function"
    },
    {
      "inputs": [],
      "name": "startEpochTime",
      "outputs": [
        {
          "internalType": "uint256",
          "name": "",
          "type": "uint256"
        }
      ],
      "stateMutability": "view",
      "type": "function"
    },
    {
      "inputs": [
        {
          "internalType": "bytes4",
          "name": "interfaceId",
          "type": "bytes4"
        }
      ],
      "name": "supportsInterface",
      "outputs": [
        {
          "internalType": "bool",
          "name": "",
          "type": "bool"
        }
      ],
      "stateMutability": "view",
      "type": "function"
    },
    {
      "inputs": [
        {
          "internalType": "address[]",
          "name": "accounts",
          "type": "address[]"
        },
        {
          "internalType": "uint256[]",
          "name": "balances",
          "type": "uint256[]"
        },
        {
          "internalType": "uint256[]",
          "name": "period",
          "type": "uint256[]"
        },
        {
          "internalType": "uint256[]",
          "name": "tokenId",
          "type": "uint256[]"
        }
      ],
      "name": "syncSTOS",
      "outputs": [],
      "stateMutability": "nonpayable",
      "type": "function"
    },
    {
      "inputs": [],
      "name": "totalDepositTOS",
      "outputs": [
        {
          "internalType": "uint256",
          "name": "",
          "type": "uint256"
        }
      ],
      "stateMutability": "view",
      "type": "function"
    },
    {
      "inputs": [],
      "name": "totalLTOS",
      "outputs": [
        {
          "internalType": "uint256",
          "name": "",
          "type": "uint256"
        }
      ],
      "stateMutability": "view",
      "type": "function"
    },
    {
      "inputs": [
        {
          "internalType": "address",
          "name": "newAdmin",
          "type": "address"
        }
      ],
      "name": "transferAdmin",
      "outputs": [],
      "stateMutability": "nonpayable",
      "type": "function"
    },
    {
      "inputs": [
        {
          "internalType": "address",
          "name": "newAdmin",
          "type": "address"
        }
      ],
      "name": "transferPolicyAdmin",
      "outputs": [],
      "stateMutability": "nonpayable",
      "type": "function"
    },
    {
      "inputs": [
        {
          "internalType": "address",
          "name": "newAdmin",
          "type": "address"
        }
      ],
      "name": "transferProxyAdmin",
      "outputs": [],
      "stateMutability": "nonpayable",
      "type": "function"
    },
    {
      "inputs": [],
      "name": "treasury",
      "outputs": [
        {
          "internalType": "address",
          "name": "",
          "type": "address"
        }
      ],
      "stateMutability": "view",
      "type": "function"
    },
    {
      "inputs": [
        {
          "internalType": "uint256",
          "name": "_stakeId",
          "type": "uint256"
        }
      ],
      "name": "unstake",
      "outputs": [],
      "stateMutability": "nonpayable",
      "type": "function"
    },
    {
      "inputs": [
        {
          "internalType": "address",
          "name": "",
          "type": "address"
        },
        {
          "internalType": "uint256",
          "name": "",
          "type": "uint256"
        }
      ],
      "name": "userStakingIndex",
      "outputs": [
        {
          "internalType": "uint256",
          "name": "",
          "type": "uint256"
        }
      ],
      "stateMutability": "view",
      "type": "function"
    },
    {
      "inputs": [
        {
          "internalType": "address",
          "name": "",
          "type": "address"
        },
        {
          "internalType": "uint256",
          "name": "",
          "type": "uint256"
        }
      ],
      "name": "userStakings",
      "outputs": [
        {
          "internalType": "uint256",
          "name": "",
          "type": "uint256"
        }
      ],
      "stateMutability": "view",
      "type": "function"
    }
  ],
  "bytecode": "0x6080604052600160085534801561001557600080fd5b50615d1b80620000266000396000f3fe608060405234801561001057600080fd5b50600436106103535760003560e01c80637e7a6d2c116101c65780637e7a6d2c1461069157806381045ead146106a45780638356ca4f146106ac57806383a5683a146106bf5780638acf45fd146106d2578063900cf0cf146106f257806391d14854146107135780639483c1d71461072657806396f1557c1461072e57806397b42937146107415780639a202d47146107545780639a794e661461075c5780639e9e792f1461076f578063a052e69e1461078f578063a1c95e5a14610798578063a217fddf146107ab578063a694fc3a146107b3578063a7110dc3146107c6578063a89aa6a8146107f1578063b24352b114610804578063b84ef08114610817578063b88ad1e31461082a578063be72f2d31461083d578063c1b1c10e14610845578063c83347af14610858578063ca16910f1461086b578063ccd811c81461087e578063d547741f14610886578063d5f95aab14610899578063da953911146108a1578063df160b3f146108b4578063e75f77e1146108bd578063f1c8c922146108d0578063f47f2f1d146108e3578063f8646408146108f6578063fad1c85c14610909578063fc7e9c6f1461091c57600080fd5b806301ffc9a714610358578063037859af146103805780630e1e998f146103a057806311f1c8bf146103b75780631814a5b1146103ca5780631e725567146103d357806322985246146103e8578063248a9ca3146103fd57806324d7806c14610410578063265705b1146104235780632e17de78146104365780632f2ff15d1461044957806330e06e8b1461045c57806336568abe14610464578063385030b41461047757806340a5737f1461048057806341c04d5e1461049357806347e1b372146104a857806349ec9883146104b05780634e533572146104c35780634e6c4466146105405780635720bf3a146105605780635746248f146105695780635dc3c29a1461057c5780635f338352146105c357806361d027b3146105cb57806365cb3a83146105de5780636d1c789f146105e657806370480275146105ef57806370a082311461060257806375829def1461061557806375b238fc1461062857806377d73dc61461064f57806378ad14051461066257806379a34c791461066b5780637cc0fee61461067e575b600080fd5b61036b6103663660046153a7565b610924565b60405190151581526020015b60405180910390f35b61039361038e366004615158565b61095b565b604051610377919061565a565b6103a9600d5481565b604051908152602001610377565b6103a96103c5366004615364565b6109c7565b6103a960065481565b6103e66103e13660046153e7565b6109e2565b005b6103a9600080516020615ca283398151915281565b6103a961040b366004615364565b610b83565b61036b61041e366004615158565b610b98565b6103e6610431366004615172565b610bb2565b6103e6610444366004615364565b610d0d565b6103e661045736600461537c565b611142565b6103a9611164565b6103e661047236600461537c565b61121d565b6103a9600c5481565b6103e661048e366004615364565b61129b565b6103a9600080516020615b4d83398151915281565b6103e66112c5565b6103e66104be366004615364565b6119b1565b61052f6104d1366004615364565b600090815260116020908152604091829020825160a08101845281546001600160a01b031680825260018301549382018490526002830154948201859052600383015460608301819052600490930154608090920182905294929392565b6040516103779594939291906155f9565b600154610553906001600160a01b031681565b604051610377919061556b565b6103a9600b5481565b6103a96105773660046151b4565b6119db565b61052f61058a366004615364565b601160205260009081526040902080546001820154600283015460038401546004909401546001600160a01b0390931693919290919085565b6103a9611a0c565b600254610553906001600160a01b031681565b6103e6611a1e565b6103a9600e5481565b6103e66105fd366004615158565b611a5b565b6103a9610610366004615158565b611a9b565b6103e6610623366004615158565b611b71565b6103a97fdf8b4c520ffe197c5343c6f5aec59570151ef9a492f2c624fd45ddde6135ec4281565b6103a961065d366004615364565b611c24565b6103a960075481565b6103e6610679366004615247565b611c46565b6103a961068c366004615364565b611e61565b6103a961069f3660046151dd565b611eb5565b6007546103a9565b6103e66106ba366004615158565b61203e565b6103e66106cd3660046153e7565b6120c8565b6103a96106e0366004615364565b60136020526000908152604090205481565b60035460045460055461070492919083565b60405161037793929190615a54565b61036b61072136600461537c565b6121f6565b6103a9612221565b6103e661073c366004615158565b612244565b6103a961074f366004615364565b612274565b6103e661228d565b6103e661076a366004615305565b6122d9565b6103a961077d366004615364565b60126020526000908152604090205481565b6103a9600a5481565b6103a96107a6366004615364565b612367565b6103a9600081565b6103a96107c1366004615364565b612372565b6103a96107d43660046151b4565b601060209081526000928352604080842090915290825290205481565b6103a96107ff366004615364565b6124fc565b6103e6610812366004615483565b612541565b6103e6610825366004615158565b612aec565b6103e661083836600461542b565b612b29565b6103e6613250565b6103a9610853366004615364565b613280565b6103a961086636600461520f565b613295565b6103a96108793660046153e7565b613549565b6103a96137f0565b6103e661089436600461537c565b6138ce565b6103a96138eb565b6103a96108af366004615364565b61396c565b6103a960095481565b6103e66108cb366004615364565b61397a565b6103e66108de366004615158565b613a03565b61036b6108f1366004615158565b613aa7565b600054610553906001600160a01b031681565b61036b610917366004615158565b613ab3565b6103a9613acd565b60006001600160e01b03198216637965db0b60e01b148061095557506301ffc9a760e01b6001600160e01b03198316145b92915050565b6001600160a01b0381166000908152600f60209081526040918290208054835181840281018401909452808452606093928301828280156109bb57602002820191906000526020600020905b8154815260200190600101908083116109a7575b50505050509050919050565b60008181526011602052604081206002015461095590612274565b8180610a095760405162461bcd60e51b8152600401610a0090615996565b60405180910390fd5b8180610a275760405162461bcd60e51b8152600401610a0090615996565b60008481526012602052604090205415610a835760405162461bcd60e51b815260206004820152601d60248201527f7468697320697320666f72206e6f6e2d6c6f636b2070726f647563742e0000006044820152606401610a00565b6000848152601160205260409020546001600160a01b0316338114610aba5760405162461bcd60e51b8152600401610a0090615879565b6000858152601160205260409020600301544211610b155760405162461bcd60e51b815260206004820152601860248201527732b732103a34b6b2903430b9903737ba103830b9b9b2b21760411b6044820152606401610a00565b610b1d6112c5565b610b2a8560008087613b05565b600054610b41906001600160a01b0316828661407a565b7f5ac7224c417abee0b26a4daa9b5221c45297a5429fc56e11bc9170dabc15d33c818587604051610b7493929190615599565b60405180910390a15050505050565b60009081526014602052604090206001015490565b6000610955600080516020615b4d833981519152836121f6565b610bbb33613ab3565b610bd75760405162461bcd60e51b8152600401610a00906159c2565b826001600160a01b038116610bfe5760405162461bcd60e51b8152600401610a009061584a565b826001600160a01b038116610c255760405162461bcd60e51b8152600401610a009061584a565b826001600160a01b038116610c4c5760405162461bcd60e51b8152600401610a009061584a565b6000546001600160a01b038781169116141580610c7757506001546001600160a01b03868116911614155b80610c9057506002546001600160a01b03858116911614155b610ccb5760405162461bcd60e51b815260206004820152600c60248201526b73616d65206164647265737360a01b6044820152606401610a00565b5050600080546001600160a01b039586166001600160a01b03199182161790915560018054948616948216949094179093555060028054919093169116179055565b8080610d2b5760405162461bcd60e51b8152600401610a0090615996565b600082815260116020526040902080546001600160a01b0316338114610d8b5760405162461bcd60e51b815260206004820152601560248201527431b0b63632b91034b9903737ba1039ba30b5b2b91760591b6044820152606401610a00565b42826003015410610dd85760405162461bcd60e51b815260206004820152601760248201527632b732103a34b6b2903430b9b713ba103830b9b9b2b21760491b6044820152606401610a00565b610de06112c5565b6000610deb856124fc565b905060008111610e355760405162461bcd60e51b81526020600482015260156024820152741e995c9bc818db185a5b58589b1948185b5bdd5b9d605a1b6044820152606401610a00565b6000610e4361074f87613280565b9050600084600101549050600060126000898152602001908152602001600020549050610e9960405180604001604052806011815260200170756e7374616b6520616d6f756e7420257360781b8152508561418a565b610edc6040518060400160405280601e81526020017f756e7374616b65205f7374616b65496e666f2e6465706f736974202025730000815250876001015461418a565b610f1d6040518060400160405280601b81526020017a756e7374616b65205f7374616b65496e666f2e4c544f532020257360281b815250876002015461418a565b610f5d6040518060400160405280601c81526020017b756e7374616b65207374616b696e675072696e636970616c2020257360201b815250600a5461418a565b81600a6000828254610f6f9190615ac1565b9091555050600286015460098054600090610f8b908490615ac1565b9091555050801561101a5760015460405163c0a37b3f60e01b81526001600160a01b039091169063c0a37b3f90610fc890889085906004016155ba565b600060405180830381600087803b158015610fe257600080fd5b505af1158015610ff6573d6000803e3d6000fd5b50505060008981526012602090815260408083208390558483526013909152812055505b6000611026868a6141cf565b90506110676040518060400160405280601d81526020017f756e7374616b6520757365725374616b654964496e64657820202025730000008152508261418a565b6110718982614444565b828411156110e5576002546001600160a01b031663013d02d6306110958688615ac1565b6040518363ffffffff1660e01b81526004016110b29291906155ba565b600060405180830381600087803b1580156110cc57600080fd5b505af11580156110e0573d6000803e3d6000fd5b505050505b6000546110fc906001600160a01b0316878761407a565b7f7fc4727e062e336010f2c282598ef5f14facb3de68cf8195c2f23e1454b2b74e86868b60405161112f93929190615599565b60405180910390a1505050505050505050565b61114b82610b83565b61115581336144bd565b61115f8383614521565b505050565b60025460405163099e2b0b60e31b81526000916001600160a01b031690634cf1585890611198906009903390600401615a3d565b60206040518083038186803b1580156111b057600080fd5b505afa1580156111c4573d6000803e3d6000fd5b505050506040513d601f19601f820116820180604052508101906111e89190615344565b6112045760405162461bcd60e51b8152600401610a00906158d7565b600e805490600061121483615b1b565b91905055905090565b6001600160a01b038116331461128d5760405162461bcd60e51b815260206004820152602f60248201527f416363657373436f6e74726f6c3a2063616e206f6e6c792072656e6f756e636560448201526e103937b632b9903337b91039b2b63360891b6064820152608401610a00565b61129782826145a7565b5050565b6112a433613ab3565b6112c05760405162461bcd60e51b8152600401610a00906159c2565b600755565b6113066040518060400160405280601a815260200179726562617365496e6465782065706f63682e656e64203a20257360301b81525060036002015461418a565b6113456040518060400160405280602081526020017f726562617365496e64657820626c6f636b2e74696d657374616d70203a2025738152504261418a565b6113896040518060400160405280601e81526020017f726562617365496e6465782065706f63682e6c656e6774685f203a202573000081525060036000015461418a565b6113c460405180604001604052806017815260200176726562617365496e64657820696e6465785f203a20257360481b81525060075461418a565b60055442106119af57600354600554600091906113e19042615ac1565b1115611404576003546005546113f79042615ac1565b6114019190615a82565b90505b6114426040518060400160405280601c81526020017b726562617365496e6465782065706f63684e756d626572203a20257360201b8152508261418a565b61144d816001615a6a565b60035461145a9190615aa2565b6005805460009061146c908490615a6a565b9091555081905061147c81615b1b565b9150506114bd6040518060400160405280601c81526020017b726562617365496e6465782065706f63684e756d626572203a20257360201b8152508261418a565b6114fe6040518060400160405280601a815260200179726562617365496e6465782065706f63682e656e64203a20257360301b81525060036002015461418a565b600754600182111561159e57600754600b546040516379e42f5d60e11b815273__$23c3f0c4d39c3898c699ac978f80cfe781$__9263f3c85eba92611547928790600401615a54565b60206040518083038186803b15801561155f57600080fd5b505af4158015611573573d6000803e3d6000fd5b505050506040513d601f19601f8201168201806040525081019061159791906153cf565b90506115b2565b81600114156115b2576115af613acd565b90505b6115ed60405180604001604052806019815260200178726562617365496e646578206e6577496e646578203a20257360381b8152508261418a565b61162b6040518060400160405280601a815260200179726562617365496e64657820746f74616c4c544f53203a20257360301b81525060095461418a565b60006116356137f0565b90506116756040518060400160405280601c81526020017b726562617365496e6465782072756e776179544f532829203a20257360201b8152508261418a565b8061167f57505050565b6007546000670de0b6b3a76400006116978386615ac1565b6009546116a49190615aa2565b6116ae9190615a82565b90506116ea60405180604001604052806018815260200177726562617365496e646578206e656564546f73203a20257360401b8152508261418a565b828110156117415760078490556004805486919060009061170c908490615a6a565b9091555050600954604051600080516020615bb5833981519152916117349185918891615a54565b60405180910390a161196e565b600185111561196e57600073__$23c3f0c4d39c3898c699ac978f80cfe781$__6343b4408261176e6137f0565b611779600954612274565b600b546040518463ffffffff1660e01b815260040161179a93929190615a54565b60206040518083038186803b1580156117b257600080fd5b505af41580156117c6573d6000803e3d6000fd5b505050506040513d601f19601f820116820180604052508101906117ea91906153cf565b905061180e604051806060016040528060258152602001615c7d602591398261418a565b8581101561196c57600754600b546040516379e42f5d60e11b815273__$23c3f0c4d39c3898c699ac978f80cfe781$__9263f3c85eba92611853928690600401615a54565b60206040518083038186803b15801561186b57600080fd5b505af415801561187f573d6000803e3d6000fd5b505050506040513d601f19601f820116820180604052508101906118a391906153cf565b94506118c7604051806060016040528060228152602001615b6d602291398661418a565b670de0b6b3a7640000600754866118de9190615ac1565b6009546118eb9190615aa2565b6118f59190615a82565b9150611919604051806060016040528060248152602001615bd5602491398361418a565b8382101561196c5760078590556004805482919060009061193b908490615a6a565b9091555050600954604051600080516020615bb5833981519152916119639186918991615a54565b60405180910390a15b505b6119a960405180604001604052806017815260200176726562617365496e64657820696e6465785f203a20257360481b81525060075461418a565b50505050505b565b6119ba33613ab3565b6119d65760405162461bcd60e51b8152600401610a00906159c2565b600b55565b600f60205281600052604060002081815481106119f757600080fd5b90600052602060002001600091509150505481565b6000611a19600954612274565b905090565b611a2733613ab3565b611a435760405162461bcd60e51b8152600401610a00906159c2565b6119af600080516020615ca28339815191523361121d565b611a6433613aa7565b611a805760405162461bcd60e51b8152600401610a0090615802565b611a98600080516020615b4d83398151915282611142565b50565b6001600160a01b0381166000908152600f6020908152604080832080548251818502810185019093528083528493830182828015611af857602002820191906000526020600020905b815481526020019060010190808311611ae4575b50505050509050805160001415611b125750600092915050565b60005b8151811015611b6a57611b4e828281518110611b4157634e487b7160e01b600052603260045260246000fd5b6020026020010151612367565b611b589084615a6a565b9250611b6381615b1b565b9050611b15565b5050919050565b611b7a33610b98565b80611b895750611b8933613aa7565b611ba55760405162461bcd60e51b8152600401610a009061578e565b6001600160a01b038116611bcb5760405162461bcd60e51b8152600401610a00906157d0565b336001600160a01b0382161415611bf45760405162461bcd60e51b8152600401610a00906158a7565b611c0c600080516020615b4d83398151915282611142565b611a98600080516020615b4d8339815191523361121d565b600754600090611c3c83670de0b6b3a7640000615aa2565b6109559190615a82565b611c4f33610b98565b80611c5e5750611c5e33613aa7565b611c7a5760405162461bcd60e51b8152600401610a009061578e565b86611cb55760405162461bcd60e51b815260206004820152600b60248201526a0f4cae4de40d8cadccee8d60ab1b6044820152606401610a00565b868514611cfb5760405162461bcd60e51b81526020600482015260146024820152730eee4dedcce40c4c2d8c2dcc6ca40d8cadccee8d60631b6044820152606401610a00565b868314611d405760405162461bcd60e51b81526020600482015260136024820152720eee4dedcce40e0cae4d2dec840d8cadccee8d606b1b6044820152606401610a00565b868114611d865760405162461bcd60e51b81526020600482015260146024820152730eee4dedcce40e8ded6cadc92c840d8cadccee8d60631b6044820152606401610a00565b60005b87811015611e5657611e43898983818110611db457634e487b7160e01b600052603260045260246000fd5b9050602002016020810190611dc99190615158565b888884818110611de957634e487b7160e01b600052603260045260246000fd5b90506020020135878785818110611e1057634e487b7160e01b600052603260045260246000fd5b90506020020135868686818110611e3757634e487b7160e01b600052603260045260246000fd5b9050602002013561460e565b5080611e4e81615b1b565b915050611d89565b505050505050505050565b60008180611e815760405162461bcd60e51b8152600401610a0090615996565b600083815260116020526040902060030154421115611eaa57611ea383613280565b9150611eaf565b600091505b50919050565b60025460405163099e2b0b60e31b81526000916001600160a01b031690634cf1585890611ee9906009903390600401615a3d565b60206040518083038186803b158015611f0157600080fd5b505afa158015611f15573d6000803e3d6000fd5b505050506040513d601f19601f82011682018060405250810190611f399190615344565b611f555760405162461bcd60e51b8152600401610a00906158d7565b836001600160a01b038116611f7c5760405162461bcd60e51b8152600401610a009061584a565b8380611f9a5760405162461bcd60e51b8152600401610a0090615996565b8380611fb85760405162461bcd60e51b8152600401610a0090615996565b611fc1876146a2565b611fc9614731565b9350611fd58785614742565b611fdd6112c5565b611ff7878588600c5442611ff19190615a6a565b89614785565b7fe1f3800913baabb4cd64b85c322408d211fe8d69b0412ed551ae01195a86d2a48787878760405161202c94939291906155d3565b60405180910390a15050509392505050565b61204733613aa7565b6120635760405162461bcd60e51b8152600401610a0090615802565b6001600160a01b0381166120895760405162461bcd60e51b8152600401610a00906157d0565b336001600160a01b03821614156120b25760405162461bcd60e51b8152600401610a00906158a7565b6120bd600082611142565b611a9860003361121d565b81806120e65760405162461bcd60e51b8152600401610a0090615996565b81806121045760405162461bcd60e51b8152600401610a0090615996565b6000848152601160205260409020546001600160a01b031633811461213b5760405162461bcd60e51b8152600401610a0090615879565b6001600160a01b03811660009081526010602090815260408083208884529091529020546001146121ae5760405162461bcd60e51b815260206004820152601f60248201527f69742773206e6f742073696d706c65207374616b696e672070726f64756374006044820152606401610a00565b6121b66112c5565b6121c381868660006148a0565b7f3580fad54ac878fb39f354ed4980379c99975b958cc12f96c2342daf1a943384818587604051610b7493929190615599565b60009182526014602090815260408084206001600160a01b0393909316845291905290205460ff1690565b60004260036002015410156122365750600090565b600554611a19904290615ac1565b61224d33613aa7565b6122695760405162461bcd60e51b8152600401610a0090615802565b611a98600082614a15565b6000670de0b6b3a764000060075483611c3c9190615aa2565b61229633610b98565b806122a557506122a533613aa7565b6122c15760405162461bcd60e51b8152600401610a009061578e565b6119af600080516020615b4d8339815191523361121d565b806123145760405162461bcd60e51b815260206004820152600b60248201526a6e6f207374616b6549647360a81b6044820152606401610a00565b8060005b818110156123615761234f84848381811061234357634e487b7160e01b600052603260045260246000fd5b90506020020135610d0d565b8061235981615b1b565b915050612318565b50505050565b600061095582613280565b600081806123925760405162461bcd60e51b8152600401610a0090615996565b600054604051636eb1769f60e11b815284916001600160a01b03169063dd62ed3e906123c4903390309060040161557f565b60206040518083038186803b1580156123dc57600080fd5b505afa1580156123f0573d6000803e3d6000fd5b505050506040513d601f19601f8201168201806040525081019061241491906153cf565b10156124325760405162461bcd60e51b8152600401610a009061572a565b60005461244a906001600160a01b0316333086614a1f565b33612454816146a2565b6001600160a01b0381166000908152600f602052604090208054600190811061248d57634e487b7160e01b600052603260045260246000fd5b906000526020600020015492506124a26112c5565b6124ba8184866124b3426001615a6a565b6000614785565b7f1449c6dd7851abc30abf37f57715f492010519147cc2652fbc38202c18a6ee908185856040516124ed93929190615599565b60405180910390a15050919050565b6000818061251c5760405162461bcd60e51b8152600401610a0090615996565b600083815260116020526040902060030154421115611eaa57611ea361074f84613280565b60008311806125505750600082115b8061255b5750600081115b6125985760405162461bcd60e51b815260206004820152600e60248201526d185b1b081e995c9bc81a5b9c1d5d60921b6044820152606401610a00565b600084815260126020908152604080832054601190925290912080546001600160a01b03163381146125dc5760405162461bcd60e51b8152600401610a0090615879565b6001600160a01b03811660009081526010602090815260408083208a845290915290205460011061265b5760405162461bcd60e51b815260206004820152602360248201527f69742773206e6f7420666f722073696d706c65207374616b65206f7220656d706044820152623a3c9760e91b6064820152608401610a00565b600061266a8360020154612274565b9050808611156126ba5760405162461bcd60e51b815260206004820152601b60248201527a1c995b585a5b9959151bdcc81a5cc81a5b9cdd59999a58da595b9d602a1b6044820152606401610a00565b83156127f957600154604051639ce5630560e01b8152600481018690526000916001600160a01b031690639ce563059060240160606040518083038186803b15801561270557600080fd5b505afa158015612719573d6000803e3d6000fd5b505050506040513d601f19601f8201168201806040525081019061273d9190615456565b5091505042811080156127535750428460030154105b61276f5760405162461bcd60e51b8152600401610a0090615907565b60015460405163c0a37b3f60e01b81526001600160a01b039091169063c0a37b3f906127a190869089906004016155ba565b600060405180830381600087803b1580156127bb57600080fd5b505af11580156127cf573d6000803e3d6000fd5b50505060008a815260126020908152604080832083905588835260139091528120555061281c9050565b4283600301541061281c5760405162461bcd60e51b8152600401610a0090615907565b86156128da57600054604051636eb1769f60e11b815288916001600160a01b03169063dd62ed3e90612854903390309060040161557f565b60206040518083038186803b15801561286c57600080fd5b505afa158015612880573d6000803e3d6000fd5b505050506040513d601f19601f820116820180604052508101906128a491906153cf565b10156128c25760405162461bcd60e51b8152600401610a009061572a565b6000546128da906001600160a01b031633308a614a1f565b6000808615612982576001546040516316045cb160e31b815273__$23c3f0c4d39c3898c699ac978f80cfe781$__9163b022e58891612929916001600160a01b03169042908c90600401615599565b604080518083038186803b15801561294057600080fd5b505af4158015612954573d6000803e3d6000fd5b505050506040513d601f19601f820116820180604052508101906129789190615408565b9092509050612a12565b600160009054906101000a90046001600160a01b03166001600160a01b031663fd2dcecf6040518163ffffffff1660e01b815260040160206040518083038186803b1580156129d057600080fd5b505afa1580156129e4573d6000803e3d6000fd5b505050506040513d601f19601f82011682018060405250810190612a0891906153cf565b9150846003015490505b612a1b846146a2565b612a236112c5565b612a2f8a828b8b613b05565b60008a8815612a8057612a428b86615a6a565b9450612a4e8a86615ac1565b9450612a5c86868b87614b32565b60008281526012602090815260408083208490558383526013909152902082905591505b8915612a9d57600054612a9d906001600160a01b0316338c61407a565b7fbc7a4cb4698ff9bbd20c2fa066bd7234e4dbb886a81ea2f45677f5f942c6e9e8868c8c8c8587604051612ad696959493929190615627565b60405180910390a1505050505050505050505050565b612af533613aa7565b612b115760405162461bcd60e51b8152600401610a0090615802565b611a98600080516020615ca283398151915282611142565b8280612b475760405162461bcd60e51b8152600401610a0090615996565b6000831180612b565750600082115b612ba25760405162461bcd60e51b815260206004820152601d60248201527f7a65726f205f616d6f756e7420616e64205f756e6c6f636b5765656b730000006044820152606401610a00565b6000848152601160205260409020546001600160a01b0316338114612bd95760405162461bcd60e51b8152600401610a0090615879565b8215612c63576001600160a01b0381166000908152601060209081526040808320888452909152902054600110612c635760405162461bcd60e51b815260206004820152602860248201527f697427732073696d706c65207374616b696e672070726f647563742c2063616e60448201526713ba103637b1b59760c11b6064820152608401610a00565b612c6b6112c5565b612c77818686866148a0565b6001546040805163fd2dcecf60e01b815290516000926001600160a01b03169163fd2dcecf916004808301926020929190829003018186803b158015612cbc57600080fd5b505afa158015612cd0573d6000803e3d6000fd5b505050506040513d601f19601f82011682018060405250810190612cf491906153cf565b6000878152601260209081526040808320546001600160a01b0387168452601083528184208b855290925290912054919250906001108015612d34575080155b8015612d405750600085115b15612d94576000612d5361074f89613280565b612d5d9088615a6a565b90506000612d6d85838987614b32565b60008a81526012602090815260408083208490559282526013905220899055506132089050565b6001600160a01b03831660009081526010602090815260408083208a84529091529020546001108015612dc75750600081115b1561320857600154604051639ce5630560e01b81526004810183905260009182916001600160a01b0390911690639ce563059060240160606040518083038186803b158015612e1557600080fd5b505afa158015612e29573d6000803e3d6000fd5b505050506040513d601f19601f82011682018060405250810190612e4d9190615456565b92509250504282118015612e71575060008981526011602052604090206003015442105b612eb85760405162461bcd60e51b81526020600482015260186024820152771b1bd8dac8195b99081d1a5b59481a185cc81c185cdcd95960421b6044820152606401610a00565b86613009576003805460008b815260116020526040812090920154612ede904290615ac1565b612ee89190615a82565b600b546040516379e42f5d60e11b815291925060009173__$23c3f0c4d39c3898c699ac978f80cfe781$__9163f3c85eba91612f2a918e918790600401615a54565b60206040518083038186803b158015612f4257600080fd5b505af4158015612f56573d6000803e3d6000fd5b505050506040513d601f19601f82011682018060405250810190612f7a91906153cf565b905060008111612f9c5760405162461bcd60e51b8152600401610a009061575e565b60015460405163077f15b960e51b81526001600160a01b039091169063efe2b72090612fd0908a9089908690600401615599565b600060405180830381600087803b158015612fea57600080fd5b505af1158015612ffe573d6000803e3d6000fd5b505050505050613205565b86156132055760035460009081908190613023888c615aa2565b61302d9190615a82565b600b546040516379e42f5d60e11b815291925073__$23c3f0c4d39c3898c699ac978f80cfe781$__9163f3c85eba9161306d918891908690600401615a54565b60206040518083038186803b15801561308557600080fd5b505af4158015613099573d6000803e3d6000fd5b505050506040513d601f19601f820116820180604052508101906130bd91906153cf565b92506130c98484615ac1565b92508a15613192576003546000906130e1898d615aa2565b6130eb4289615ac1565b6130f59190615a6a565b6130ff9190615a82565b905073__$23c3f0c4d39c3898c699ac978f80cfe781$__63f3c85eba8d600b54846040518463ffffffff1660e01b815260040161313e93929190615a54565b60206040518083038186803b15801561315657600080fd5b505af415801561316a573d6000803e3d6000fd5b505050506040513d601f19601f8201168201806040525081019061318e91906153cf565b9250505b6001546001600160a01b031663b839c0a589886131af8688615a6a565b8e6040518563ffffffff1660e01b81526004016131cf94939291906155d3565b600060405180830381600087803b1580156131e957600080fd5b505af11580156131fd573d6000803e3d6000fd5b505050505050505b50505b7f8123201ee995a827ab51b6fa7437b3656f79bb6ce0ec96a8ec91516a335742068387878a8560405161323f9594939291906155f9565b60405180910390a150505050505050565b61325933613aa7565b6132755760405162461bcd60e51b8152600401610a0090615802565b6119af60003361121d565b60009081526011602052604090206002015490565b60025460405163099e2b0b60e31b81526000916001600160a01b031690634cf15858906132c9906009903390600401615a3d565b60206040518083038186803b1580156132e157600080fd5b505afa1580156132f5573d6000803e3d6000fd5b505050506040513d601f19601f820116820180604052508101906133199190615344565b6133355760405162461bcd60e51b8152600401610a00906158d7565b846001600160a01b03811661335c5760405162461bcd60e51b8152600401610a009061584a565b848061337a5760405162461bcd60e51b8152600401610a0090615996565b83806133985760405162461bcd60e51b8152600401610a0090615996565b85806133b65760405162461bcd60e51b8152600401610a0090615996565b6001546040516316045cb160e31b8152600091829173__$23c3f0c4d39c3898c699ac978f80cfe781$__9163b022e58891613401916001600160a01b03169042908d90600401615599565b604080518083038186803b15801561341857600080fd5b505af415801561342c573d6000803e3d6000fd5b505050506040513d601f19601f820116820180604052508101906134509190615408565b91509150600082116134745760405162461bcd60e51b8152600401610a009061593d565b600081116134945760405162461bcd60e51b8152600401610a0090615701565b61349d8b6146a2565b6134a5614731565b96506134b18b88614742565b6134b96112c5565b6134c68b888c848d614785565b60006134d48c8c8b86614b32565b60008981526012602090815260408083208490558383526013909152908190208a9055519091507fb47948ad9395db9a50783bfd56f5ee0ed5ca88bf926550eb5713c5fff7250e3190613532908e908e908d908f908e908890615627565b60405180910390a150505050505050949350505050565b600082806135695760405162461bcd60e51b8152600401610a0090615996565b82806135875760405162461bcd60e51b8152600401610a0090615996565b600b54806135a75760405162461bcd60e51b8152600401610a0090615996565b600054604051636eb1769f60e11b815287916001600160a01b03169063dd62ed3e906135d9903390309060040161557f565b60206040518083038186803b1580156135f157600080fd5b505afa158015613605573d6000803e3d6000fd5b505050506040513d601f19601f8201168201806040525081019061362991906153cf565b10156136475760405162461bcd60e51b8152600401610a009061572a565b6001546040516316045cb160e31b8152600091829173__$23c3f0c4d39c3898c699ac978f80cfe781$__9163b022e58891613692916001600160a01b03169042908c90600401615599565b604080518083038186803b1580156136a957600080fd5b505af41580156136bd573d6000803e3d6000fd5b505050506040513d601f19601f820116820180604052508101906136e19190615408565b91509150600082116137055760405162461bcd60e51b8152600401610a009061593d565b600081116137255760405162461bcd60e51b8152600401610a0090615701565b60005461373d906001600160a01b031633308b614a1f565b33613747816146a2565b61374f614731565b965061375b8188614742565b6137636112c5565b61377181888b856000614785565b600061377f828b8b87614b32565b60008981526012602090815260408083208490558383526013909152908190208a9055519091507f354a6b3cd6afbe9ef2b8c8bbc20901d395d112a1891737da4aff281b283cca42906137db9084908d908d908d9087906155f9565b60405180910390a15050505050505092915050565b600080600260009054906101000a90046001600160a01b03166001600160a01b031663d11aca626040518163ffffffff1660e01b815260040160206040518083038186803b15801561384157600080fd5b505afa158015613855573d6000803e3d6000fd5b505050506040513d601f19601f8201168201806040525081019061387991906153cf565b905060006138856138eb565b90506000613894600954612274565b9050806138a18385615a6a565b10156138b1576000935050505090565b806138bc8385615a6a565b6138c69190615ac1565b935050505090565b6138d782610b83565b6138e181336144bd565b61115f83836145a7565b600080546040516370a0823160e01b81526001600160a01b03909116906370a082319061391c90309060040161556b565b60206040518083038186803b15801561393457600080fd5b505afa158015613948573d6000803e3d6000fd5b505050506040513d601f19601f82011682018060405250810190611a1991906153cf565b600061095561074f83613280565b61398333613ab3565b61399f5760405162461bcd60e51b8152600401610a00906159c2565b80806139bd5760405162461bcd60e51b8152600401610a0090615996565b81600c5414156139fd5760405162461bcd60e51b815260206004820152600b60248201526a1cd85b59481c195c9a5bd960aa1b6044820152606401610a00565b50600c55565b613a0c33613ab3565b613a285760405162461bcd60e51b8152600401610a00906159c2565b6001600160a01b038116613a4e5760405162461bcd60e51b8152600401610a00906157d0565b336001600160a01b0382161415613a775760405162461bcd60e51b8152600401610a00906158a7565b613a8f600080516020615ca283398151915282611142565b611a98600080516020615ca28339815191523361121d565b600061095581836121f6565b6000610955600080516020615ca2833981519152836121f6565b6000670de0b6b3a7640000600b54670de0b6b3a7640000613aee9190615a6a565b600754613afb9190615aa2565b611a199190615a82565b600854600114613b275760405162461bcd60e51b8152600401610a0090615a0b565b60006008556040805180820190915260198152785f7570646174655374616b65496e666f20737461727420257360381b6020820152613b66908561418a565b6000848152601160205260409020546001600160a01b0316613bc05760405162461bcd60e51b81526020600482015260136024820152726e6f6e2d6578697374207374616b65496e666f60681b6044820152606401610a00565b6000821180613bcf5750600081115b80613bda5750600083115b613c155760405162461bcd60e51b815260206004820152600c60248201526b7a65726f20416d6f756e747360a01b6044820152606401610a00565b600084815260116020526040902060020154613c5f5760405162461bcd60e51b81526020600482015260096024820152687a65726f204c544f5360b81b6044820152606401610a00565b600084815260116020526040812060020154613c7a90612274565b9050613caf604051806040016040528060128152602001715f7570646174655374616b65496e666f203160701b815250614cfa565b80821115613cfe5760405162461bcd60e51b815260206004820152601c60248201527b1cdd185ad948185b5bdd5b9d081a5cc81a5b9cdd59999a58da595b9d60221b6044820152606401610a00565b600085815260116020526040812081908515613d2057613d1d86611c24565b92505b8415613d3257613d2f85611c24565b91505b868160030181905550613d61604051806060016040528060288152602001615c5560289139826003015461418a565b613da06040518060400160405280602081526020017f5f7570646174655374616b65496e666f207374616b6564416d6f756e742025738152508561418a565b613dc6604051806060016040528060268152602001615b8f60269139826001015461418a565b60008160010154851115613de6576001820154613de39086615ac1565b90505b613e19604051806040016040528060128152602001715f7570646174655374616b65496e666f203360701b815250614cfa565b8315613e525783826002016000828254613e339190615a6a565b925050819055508360096000828254613e4c9190615a6a565b90915550505b8215613e8b5782826002016000828254613e6c9190615ac1565b925050819055508260096000828254613e859190615ac1565b90915550505b6000871180613e9a5750600081115b80613ea55750600086115b15613eff578581888460010154613ebc9190615a6a565b613ec69190615a6a565b613ed09190615ac1565b6001830155600a5486908290613ee7908a90615a6a565b613ef19190615a6a565b613efb9190615ac1565b600a555b613f206040518060600160405280602e8152602001615c27602e9139614cfa565b613f5c6040518060400160405280601a8152602001795f7570646174655374616b65496e666f2070726f66697420257360301b8152508261418a565b613f80604051806060016040528060248152602001615cc260249139600a5461418a565b613fbf6040518060400160405280601d81526020017f5f7570646174655374616b65496e666f20636c61696d4c746f732025730000008152508461418a565b6140006040518060400160405280601d81526020017f5f7570646174655374616b65496e666f20746f74616c4c544f5320257300000081525060095461418a565b801561406a57600254604051629e816b60e11b81526001600160a01b039091169063013d02d69061403790309085906004016155ba565b600060405180830381600087803b15801561405157600080fd5b505af1158015614065573d6000803e3d6000fd5b505050505b5050600160085550505050505050565b600080846001600160a01b031663a9059cbb60e01b85856040516024016140a29291906155ba565b60408051601f198184030181529181526020820180516001600160e01b03166001600160e01b03199094169390931790925290516140e091906154e0565b6000604051808303816000865af19150503d806000811461411d576040519150601f19603f3d011682016040523d82523d6000602084013e614122565b606091505b509150915081801561414c57508051158061414c57508080602001905181019061414c9190615344565b6119a95760405162461bcd60e51b815260206004820152600f60248201526e1514905394d1915497d19052531151608a1b6044820152606401610a00565b61129782826040516024016141a09291906156df565b60408051601f198184030181529190526020810180516001600160e01b03166309710a9d60e41b179052614d39565b600061420c604051806040016040528060188152602001775f64656c657465557365725374616b65496420257320257360401b8152508484614d5a565b506001600160a01b0382166000908152601060209081526040808320848452825291829020548251808401909352601f83527f5f64656c657465557365725374616b6549642020637572496e646578202573009183019190915290614271908261418a565b6001811115610955576142b46040518060600160405280602e8152602001615bf9602e91396001600160a01b0385166000908152600f602052604090205461418a565b6001600160a01b0383166000908152600f60205260409020546142d990600190615ac1565b8110156143dd576001600160a01b0383166000908152600f60205260408120805461430690600190615ac1565b8154811061432457634e487b7160e01b600052603260045260246000fd5b906000526020600020015490506143706040518060400160405280601d81526020017f5f64656c657465557365725374616b65496420206c61737449642025730000008152508261418a565b6001600160a01b0384166000908152600f602052604090208054829190849081106143ab57634e487b7160e01b600052603260045260246000fd5b60009182526020808320909101929092556001600160a01b038616815260108252604080822093825292909152208190555b6001600160a01b03831660008181526010602090815260408083208684528252808320839055928252600f90522080548061442857634e487b7160e01b600052603160045260246000fd5b6001900381819060005260206000200160009055905592915050565b60018111156144855750600090815260116020526040812080546001600160a01b031916815560018101829055600281018290556003810182905560040155565b50600090815260116020526040812080546001600160a01b031916815560018101829055600281018290556003810182905560040155565b6144c782826121f6565b611297576144df816001600160a01b03166014614da1565b6144ea836020614da1565b6040516020016144fb9291906154fc565b60408051601f198184030181529082905262461bcd60e51b8252610a009160040161569e565b61452b82826121f6565b6112975760008281526014602090815260408083206001600160a01b03851684529091529020805460ff191660011790556145633390565b6001600160a01b0316816001600160a01b0316837f2f8788117e7eff1d82e926ec794901d17c78024a50270940304540a733656f0d60405160405180910390a45050565b6145b182826121f6565b156112975760008281526014602090815260408083206001600160a01b0385168085529252808320805460ff1916905551339285917ff6391f5c32d9c69d2a47ea670b442974b53935d1edc7fd64eb21e047a839171b9190a45050565b6000838061462e5760405162461bcd60e51b8152600401610a0090615996565b838061464c5760405162461bcd60e51b8152600401610a0090615996565b614655876146a2565b61465d614731565b92506146698784614742565b614677878488886000614785565b5050600081815260126020908152604080832085905593825260139052919091208190559392505050565b6001600160a01b0381166000908152600f6020526040902054611a9857600d80549060006146cf83615b1b565b90915550506001600160a01b03166000818152600f6020818152604080842080546001808201835582875284872091820187905596865260108452828620600d8054885290855292862087905593909252548154948501825592529190910155565b600d80546000918261121483615b1b565b6001600160a01b039091166000908152600f6020818152604080842080546010845282862087875284529185208290559282526001810183559183529091200155565b6008546001146147a75760405162461bcd60e51b8152600401610a0090615a0b565b60006008819055848152601160205260409020546001600160a01b0316156147e15760405162461bcd60e51b8152600401610a0090615969565b60006147ec84611c24565b6040805160a0810182526001600160a01b0389811682526020808301898152838501868152606085018a8152608086018a815260008e81526011909552968420955186546001600160a01b031916951694909417855590516001850155516002840155905160038301559151600490910155600a80549293508692909190614875908490615a6a565b92505081905550806009600082825461488e9190615a6a565b90915550506001600855505050505050565b811561495e57600054604051636eb1769f60e11b815283916001600160a01b03169063dd62ed3e906148d8908890309060040161557f565b60206040518083038186803b1580156148f057600080fd5b505afa158015614904573d6000803e3d6000fd5b505050506040513d601f19601f8201168201806040525081019061492891906153cf565b10156149465760405162461bcd60e51b8152600401610a009061572a565b60005461495e906001600160a01b0316853085614a1f565b6000808215614a02576001546040516316045cb160e31b815273__$23c3f0c4d39c3898c699ac978f80cfe781$__9163b022e588916149ae916001600160a01b0316906000908890600401615599565b604080518083038186803b1580156149c557600080fd5b505af41580156149d9573d6000803e3d6000fd5b505050506040513d601f19601f820116820180604052508101906149fd9190615408565b925090505b614a0d858584614f89565b505050505050565b6112978282614521565b604080516001600160a01b0385811660248301528481166044830152606480830185905283518084039091018152608490920183526020820180516001600160e01b03166323b872dd60e01b1790529151600092839290881691614a8391906154e0565b6000604051808303816000865af19150503d8060008114614ac0576040519150601f19603f3d011682016040523d82523d6000602084013e614ac5565b606091505b5091509150818015614aef575080511580614aef575080806020019051810190614aef9190615344565b614a0d5760405162461bcd60e51b81526020600482015260146024820152731514905394d1915497d19493d357d1905253115160621b6044820152606401610a00565b6000600854600114614b565760405162461bcd60e51b8152600401610a0090615a0b565b60006008819055600b5460035473__$23c3f0c4d39c3898c699ac978f80cfe781$__9163f3c85eba91889190614b8c888a615aa2565b614b969190615a82565b6040518463ffffffff1660e01b8152600401614bb493929190615a54565b60206040518083038186803b158015614bcc57600080fd5b505af4158015614be0573d6000803e3d6000fd5b505050506040513d601f19601f82011682018060405250810190614c0491906153cf565b905060008111614c265760405162461bcd60e51b8152600401610a009061575e565b60015460405163036e72c360e21b81526001600160a01b0390911690630db9cb0c90614c5a90899085908990600401615599565b602060405180830381600087803b158015614c7457600080fd5b505af1158015614c88573d6000803e3d6000fd5b505050506040513d601f19601f82011682018060405250810190614cac91906153cf565b915060008211614cec5760405162461bcd60e51b815260206004820152600b60248201526a1e995c9bc81cd513d4da5960aa1b6044820152606401610a00565b506001600855949350505050565b611a9881604051602401614d0e919061569e565b60408051601f198184030181529190526020810180516001600160e01b031663104c13eb60e21b1790525b80516a636f6e736f6c652e6c6f67602083016000808483855afa5050505050565b61115f838383604051602401614d72939291906156b1565b60408051601f198184030181529190526020810180516001600160e01b03166307c8121760e01b179052614d39565b60606000614db0836002615aa2565b614dbb906002615a6a565b6001600160401b03811115614de057634e487b7160e01b600052604160045260246000fd5b6040519080825280601f01601f191660200182016040528015614e0a576020820181803683370190505b509050600360fc1b81600081518110614e3357634e487b7160e01b600052603260045260246000fd5b60200101906001600160f81b031916908160001a905350600f60fb1b81600181518110614e7057634e487b7160e01b600052603260045260246000fd5b60200101906001600160f81b031916908160001a9053506000614e94846002615aa2565b614e9f906001615a6a565b90505b6001811115614f33576f181899199a1a9b1b9c1cb0b131b232b360811b85600f1660108110614ee157634e487b7160e01b600052603260045260246000fd5b1a60f81b828281518110614f0557634e487b7160e01b600052603260045260246000fd5b60200101906001600160f81b031916908160001a90535060049490941c93614f2c81615b04565b9050614ea2565b508315614f825760405162461bcd60e51b815260206004820181905260248201527f537472696e67733a20686578206c656e67746820696e73756666696369656e746044820152606401610a00565b9392505050565b600854600114614fab5760405162461bcd60e51b8152600401610a0090615a0b565b60006008819055838152601160205260409020546001600160a01b0316614fe45760405162461bcd60e51b8152600401610a0090615969565b6000821180614ff35750600081115b61503f5760405162461bcd60e51b815260206004820181905260248201527f7a65726f20616d6f756e7420616e64205f696e6372656173655365636f6e64736044820152606401610a00565b600083815260116020526040902082156150c857600061505e84611c24565b9050838260010160008282546150749190615a6a565b925050819055508082600201600082825461508f9190615a6a565b9250508190555083600a60008282546150a89190615a6a565b9250508190555080600960008282546150c19190615a6a565b9091555050505b81156150e857818160030160008282546150e29190615a6a565b90915550505b505060016008555050565b80356001600160a01b038116811461510a57600080fd5b919050565b60008083601f840112615120578182fd5b5081356001600160401b03811115615136578182fd5b6020830191508360208260051b850101111561515157600080fd5b9250929050565b600060208284031215615169578081fd5b614f82826150f3565b600080600060608486031215615186578182fd5b61518f846150f3565b925061519d602085016150f3565b91506151ab604085016150f3565b90509250925092565b600080604083850312156151c6578182fd5b6151cf836150f3565b946020939093013593505050565b6000806000606084860312156151f1578283fd5b6151fa846150f3565b95602085013595506040909401359392505050565b60008060008060808587031215615224578081fd5b61522d856150f3565b966020860135965060408601359560600135945092505050565b6000806000806000806000806080898b031215615262578384fd5b88356001600160401b0380821115615278578586fd5b6152848c838d0161510f565b909a50985060208b013591508082111561529c578586fd5b6152a88c838d0161510f565b909850965060408b01359150808211156152c0578586fd5b6152cc8c838d0161510f565b909650945060608b01359150808211156152e4578384fd5b506152f18b828c0161510f565b999c989b5096995094979396929594505050565b60008060208385031215615317578182fd5b82356001600160401b0381111561532c578283fd5b6153388582860161510f565b90969095509350505050565b600060208284031215615355578081fd5b81518015158114614f82578182fd5b600060208284031215615375578081fd5b5035919050565b6000806040838503121561538e578182fd5b8235915061539e602084016150f3565b90509250929050565b6000602082840312156153b8578081fd5b81356001600160e01b031981168114614f82578182fd5b6000602082840312156153e0578081fd5b5051919050565b600080604083850312156153f9578182fd5b50508035926020909101359150565b6000806040838503121561541a578182fd5b505080516020909101519092909150565b60008060006060848603121561543f578081fd5b505081359360208301359350604090920135919050565b60008060006060848603121561546a578081fd5b8351925060208401519150604084015190509250925092565b60008060008060808587031215615498578182fd5b5050823594602084013594506040840135936060013592509050565b600081518084526154cc816020860160208601615ad8565b601f01601f19169290920160200192915050565b600082516154f2818460208701615ad8565b9190910192915050565b76020b1b1b2b9b9a1b7b73a3937b61d1030b1b1b7bab73a1604d1b81526000835161552e816017850160208801615ad8565b7001034b99036b4b9b9b4b733903937b6329607d1b601791840191820152835161555f816028840160208801615ad8565b01602801949350505050565b6001600160a01b0391909116815260200190565b6001600160a01b0392831681529116602082015260400190565b6001600160a01b039390931683526020830191909152604082015260600190565b6001600160a01b03929092168252602082015260400190565b6001600160a01b0394909416845260208401929092526040830152606082015260800190565b6001600160a01b03959095168552602085019390935260408401919091526060830152608082015260a00190565b6001600160a01b03969096168652602086019490945260408501929092526060840152608083015260a082015260c00190565b6020808252825182820181905260009190848201906040850190845b8181101561569257835183529284019291840191600101615676565b50909695505050505050565b602081526000614f8260208301846154b4565b6060815260006156c460608301866154b4565b6001600160a01b039490941660208301525060400152919050565b6040815260006156f260408301856154b4565b90508260208301529392505050565b6020808252600f908201526e7a65726f20756e6c6f636b54696d6560881b604082015260600190565b6020808252601a908201527930b63637bbb0b731b29034b99034b739bab33334b1b4b2b73a1760311b604082015260600190565b6020808252601690820152751e995c9bc818dbdb5c1bdd5b99195908185b5bdd5b9d60521b604082015260600190565b60208082526022908201527f41636365737369626c653a2043616c6c6572206973206e6f7420616e2061646d60408201526134b760f11b606082015260800190565b60208082526018908201527741636365737369626c653a207a65726f206164647265737360401b604082015260600190565b60208082526028908201527f41636365737369626c653a2043616c6c6572206973206e6f7420616e2070726f6040820152673c3c9030b236b4b760c11b606082015260800190565b6020808252601590820152745374616b696e673a207a65726f206164647265737360581b604082015260600190565b60208082526014908201527331b0b63632b91034b9903737ba1039ba30b5b2b960611b604082015260600190565b60208082526016908201527520b1b1b2b9b9b4b136329d1039b0b6b29030b236b4b760511b604082015260600190565b60208082526016908201527539b2b73232b91034b9903737ba1030903137b73232b960511b604082015260600190565b6020808252601c908201527b1b1bd8dac8195b99081d1a5b59481a185cc81b9bdd081c185cdcd95960221b604082015260600190565b6020808252601290820152711e995c9bc81cd51bdcd15c1bd8da155b9a5d60721b604082015260600190565b6020808252601390820152726e6f6e2d656d707479207374616b65496e666f60681b604082015260600190565b60208082526012908201527114dd185ada5b99ce881e995c9bc81d5a5b9d60721b604082015260600190565b60208082526029908201527f41636365737369626c653a2043616c6c6572206973206e6f7420616e20706f6c60408201526834b1bc9030b236b4b760b91b606082015260800190565b6020808252601890820152774c6f636b496420697320616c726561647920696e2075736560401b604082015260600190565b9182526001600160a01b0316602082015260400190565b9283526020830191909152604082015260600190565b60008219821115615a7d57615a7d615b36565b500190565b600082615a9d57634e487b7160e01b81526012600452602481fd5b500490565b6000816000190483118215151615615abc57615abc615b36565b500290565b600082821015615ad357615ad3615b36565b500390565b60005b83811015615af3578181015183820152602001615adb565b838111156123615750506000910152565b600081615b1357615b13615b36565b506000190190565b6000600019821415615b2f57615b2f615b36565b5060010190565b634e487b7160e01b600052601160045260246000fdfe52eafc11f6f81f86878bffd31109a0d92f37506527754f00788853ff9f63b130726562617365496e64657820636f6d706f756e64206e6577496e646578203a2025735f7570646174655374616b65496e666f205f7374616b65496e666f2e6465706f736974202573d1a8a452d776b1b6802824ca2e8489c6448e2cb0963f552a9a19ab4ae064ca58726562617365496e646578206e6577496e646578202d3e206e656564546f73203a2025735f64656c657465557365725374616b6549642020757365725374616b696e67735b746f5d2e6c656e6774682025732d2d2d2d2d2d2d2d2d2d2d5f7570646174655374616b65496e666f202d2d2d2d2d2d2d2d2d2d2d2d2d2d2d2d2d2d5f7570646174655374616b65496e666f205f7374616b65496e666f2e656e6454696d65203a202573726562617365496e646578205f706f737369626c6545706f63684e756d626572203a202573fb5864e8ff833c3cb2d2d08505e82ff02a43554c74a35d4f5a64e852612783115f7570646174655374616b65496e666f207374616b696e675072696e636970616c202573a26469706673582212203ab5a990799d35dbde1e8bba9d92daaec662422621d35256af111d08d87f977a64736f6c63430008040033",
  "linkReferences": {
    "contracts/libraries/LibStaking.sol": {
      "LibStaking": [
        {
          "length": 20,
          "start": 5445
        },
        {
          "length": 20,
          "start": 6004
        },
        {
          "length": 20,
          "start": 6225
        },
        {
          "length": 20,
          "start": 10523
        },
        {
          "length": 20,
          "start": 12070
        },
        {
          "length": 20,
          "start": 12392
        },
        {
          "length": 20,
          "start": 12585
        },
        {
          "length": 20,
          "start": 13299
        },
        {
          "length": 20,
          "start": 13956
        },
        {
          "length": 20,
          "start": 18847
        },
        {
          "length": 20,
          "start": 19339
        }
      ]
    }
  },
  "deployedLinkReferences": {
    "contracts/libraries/LibStaking.sol": {
      "LibStaking": [
        {
          "length": 20,
          "start": 5407
        },
        {
          "length": 20,
          "start": 5966
        },
        {
          "length": 20,
          "start": 6187
        },
        {
          "length": 20,
          "start": 10485
        },
        {
          "length": 20,
          "start": 12032
        },
        {
          "length": 20,
          "start": 12354
        },
        {
          "length": 20,
          "start": 12547
        },
        {
          "length": 20,
          "start": 13261
        },
        {
          "length": 20,
          "start": 13918
        },
        {
          "length": 20,
          "start": 18809
        },
        {
          "length": 20,
          "start": 19301
        }
      ]
    }
  }
}